{
  "contractName": "CarborCrowdsale",
  "abi": [
    {
      "constant": true,
      "inputs": [
        {
          "name": "_operator",
          "type": "address"
        },
        {
          "name": "_role",
          "type": "string"
        }
      ],
      "name": "checkRole",
      "outputs": [],
      "payable": false,
      "stateMutability": "view",
      "type": "function"
    },
    {
      "constant": true,
      "inputs": [],
      "name": "hasClosed",
      "outputs": [
        {
          "name": "",
          "type": "bool"
        }
      ],
      "payable": false,
      "stateMutability": "view",
      "type": "function"
    },
    {
      "constant": true,
      "inputs": [],
      "name": "ROLE_WHITELISTED",
      "outputs": [
        {
          "name": "",
          "type": "string"
        }
      ],
      "payable": false,
      "stateMutability": "view",
      "type": "function"
    },
    {
      "constant": true,
      "inputs": [
        {
          "name": "_operator",
          "type": "address"
        },
        {
          "name": "_role",
          "type": "string"
        }
      ],
      "name": "hasRole",
      "outputs": [
        {
          "name": "",
          "type": "bool"
        }
      ],
      "payable": false,
      "stateMutability": "view",
      "type": "function"
    },
    {
      "constant": false,
      "inputs": [
        {
          "name": "_operators",
          "type": "address[]"
        }
      ],
      "name": "removeAddressesFromWhitelist",
      "outputs": [],
      "payable": false,
      "stateMutability": "nonpayable",
      "type": "function"
    },
    {
      "constant": false,
      "inputs": [
        {
          "name": "_operator",
          "type": "address"
        }
      ],
      "name": "removeAddressFromWhitelist",
      "outputs": [],
      "payable": false,
      "stateMutability": "nonpayable",
      "type": "function"
    },
    {
      "constant": true,
      "inputs": [],
      "name": "rate",
      "outputs": [
        {
          "name": "",
          "type": "uint256"
        }
      ],
      "payable": false,
      "stateMutability": "view",
      "type": "function"
    },
    {
      "constant": true,
      "inputs": [],
      "name": "cap",
      "outputs": [
        {
          "name": "",
          "type": "uint256"
        }
      ],
      "payable": false,
      "stateMutability": "view",
      "type": "function"
    },
    {
      "constant": true,
      "inputs": [],
      "name": "goal",
      "outputs": [
        {
          "name": "",
          "type": "uint256"
        }
      ],
      "payable": false,
      "stateMutability": "view",
      "type": "function"
    },
    {
      "constant": true,
      "inputs": [],
      "name": "weiRaised",
      "outputs": [
        {
          "name": "",
          "type": "uint256"
        }
      ],
      "payable": false,
      "stateMutability": "view",
      "type": "function"
    },
    {
      "constant": true,
      "inputs": [],
      "name": "closingTime",
      "outputs": [
        {
          "name": "",
          "type": "uint256"
        }
      ],
      "payable": false,
      "stateMutability": "view",
      "type": "function"
    },
    {
      "constant": false,
      "inputs": [],
      "name": "finalize",
      "outputs": [],
      "payable": false,
      "stateMutability": "nonpayable",
      "type": "function"
    },
    {
      "constant": true,
      "inputs": [],
      "name": "capReached",
      "outputs": [
        {
          "name": "",
          "type": "bool"
        }
      ],
      "payable": false,
      "stateMutability": "view",
      "type": "function"
    },
    {
      "constant": true,
      "inputs": [],
      "name": "wallet",
      "outputs": [
        {
          "name": "",
          "type": "address"
        }
      ],
      "payable": false,
      "stateMutability": "view",
      "type": "function"
    },
    {
      "constant": false,
      "inputs": [],
      "name": "renounceOwnership",
      "outputs": [],
      "payable": false,
      "stateMutability": "nonpayable",
      "type": "function"
    },
    {
      "constant": true,
      "inputs": [],
      "name": "stagesLength",
      "outputs": [
        {
          "name": "",
          "type": "uint256"
        }
      ],
      "payable": false,
      "stateMutability": "view",
      "type": "function"
    },
    {
      "constant": false,
      "inputs": [
        {
          "name": "_operator",
          "type": "address"
        }
      ],
      "name": "addAddressToWhitelist",
      "outputs": [],
      "payable": false,
      "stateMutability": "nonpayable",
      "type": "function"
    },
    {
      "constant": true,
      "inputs": [],
      "name": "goalReached",
      "outputs": [
        {
          "name": "",
          "type": "bool"
        }
      ],
      "payable": false,
      "stateMutability": "view",
      "type": "function"
    },
    {
      "constant": true,
      "inputs": [
        {
          "name": "",
          "type": "uint256"
        }
      ],
      "name": "stages",
      "outputs": [
        {
          "name": "stage",
          "type": "uint8"
        },
        {
          "name": "startTime",
          "type": "uint256"
        },
        {
          "name": "endTime",
          "type": "uint256"
        },
        {
          "name": "rate",
          "type": "uint256"
        },
        {
          "name": "exist",
          "type": "bool"
        }
      ],
      "payable": false,
      "stateMutability": "view",
      "type": "function"
    },
    {
      "constant": true,
      "inputs": [],
      "name": "tokensForPrivateSale",
      "outputs": [
        {
          "name": "",
          "type": "uint256"
        }
      ],
      "payable": false,
      "stateMutability": "view",
      "type": "function"
    },
    {
      "constant": true,
      "inputs": [],
      "name": "isFinalized",
      "outputs": [
        {
          "name": "",
          "type": "bool"
        }
      ],
      "payable": false,
      "stateMutability": "view",
      "type": "function"
    },
    {
      "constant": true,
      "inputs": [],
      "name": "owner",
      "outputs": [
        {
          "name": "",
          "type": "address"
        }
      ],
      "payable": false,
      "stateMutability": "view",
      "type": "function"
    },
    {
      "constant": true,
      "inputs": [],
      "name": "softCap",
      "outputs": [
        {
          "name": "",
          "type": "uint256"
        }
      ],
      "payable": false,
      "stateMutability": "view",
      "type": "function"
    },
    {
      "constant": true,
      "inputs": [],
      "name": "maxSaleTokens",
      "outputs": [
        {
          "name": "",
          "type": "uint256"
        }
      ],
      "payable": false,
      "stateMutability": "view",
      "type": "function"
    },
    {
      "constant": true,
      "inputs": [
        {
          "name": "_operator",
          "type": "address"
        }
      ],
      "name": "whitelist",
      "outputs": [
        {
          "name": "",
          "type": "bool"
        }
      ],
      "payable": false,
      "stateMutability": "view",
      "type": "function"
    },
    {
      "constant": false,
      "inputs": [],
      "name": "claimRefund",
      "outputs": [],
      "payable": false,
      "stateMutability": "nonpayable",
      "type": "function"
    },
    {
      "constant": true,
      "inputs": [],
      "name": "openingTime",
      "outputs": [
        {
          "name": "",
          "type": "uint256"
        }
      ],
      "payable": false,
      "stateMutability": "view",
      "type": "function"
    },
    {
      "constant": false,
      "inputs": [
        {
          "name": "_operators",
          "type": "address[]"
        }
      ],
      "name": "addAddressesToWhitelist",
      "outputs": [],
      "payable": false,
      "stateMutability": "nonpayable",
      "type": "function"
    },
    {
      "constant": true,
      "inputs": [],
      "name": "limitPreSale",
      "outputs": [
        {
          "name": "",
          "type": "uint256"
        }
      ],
      "payable": false,
      "stateMutability": "view",
      "type": "function"
    },
    {
      "constant": true,
      "inputs": [],
      "name": "maxTokens",
      "outputs": [
        {
          "name": "",
          "type": "uint256"
        }
      ],
      "payable": false,
      "stateMutability": "view",
      "type": "function"
    },
    {
      "constant": false,
      "inputs": [
        {
          "name": "_beneficiary",
          "type": "address"
        }
      ],
      "name": "buyTokens",
      "outputs": [],
      "payable": true,
      "stateMutability": "payable",
      "type": "function"
    },
    {
      "constant": false,
      "inputs": [
        {
          "name": "_newOwner",
          "type": "address"
        }
      ],
      "name": "transferOwnership",
      "outputs": [],
      "payable": false,
      "stateMutability": "nonpayable",
      "type": "function"
    },
    {
      "constant": true,
      "inputs": [],
      "name": "token",
      "outputs": [
        {
          "name": "",
          "type": "address"
        }
      ],
      "payable": false,
      "stateMutability": "view",
      "type": "function"
    },
    {
      "constant": true,
      "inputs": [],
      "name": "tokensForTeam",
      "outputs": [
        {
          "name": "",
          "type": "uint256"
        }
      ],
      "payable": false,
      "stateMutability": "view",
      "type": "function"
    },
    {
      "inputs": [
        {
          "name": "_startTime",
          "type": "uint256"
        },
        {
          "name": "_endTime",
          "type": "uint256"
        },
        {
          "name": "_rate",
          "type": "uint256"
        },
        {
          "name": "_wallet",
          "type": "address"
        },
        {
          "name": "_token",
          "type": "address"
        }
      ],
      "payable": false,
      "stateMutability": "nonpayable",
      "type": "constructor"
    },
    {
      "payable": true,
      "stateMutability": "payable",
      "type": "fallback"
    },
    {
      "anonymous": false,
      "inputs": [],
      "name": "Finalized",
      "type": "event"
    },
    {
      "anonymous": false,
      "inputs": [
        {
          "indexed": true,
          "name": "purchaser",
          "type": "address"
        },
        {
          "indexed": true,
          "name": "beneficiary",
          "type": "address"
        },
        {
          "indexed": false,
          "name": "value",
          "type": "uint256"
        },
        {
          "indexed": false,
          "name": "amount",
          "type": "uint256"
        }
      ],
      "name": "TokenPurchase",
      "type": "event"
    },
    {
      "anonymous": false,
      "inputs": [
        {
          "indexed": true,
          "name": "operator",
          "type": "address"
        },
        {
          "indexed": false,
          "name": "role",
          "type": "string"
        }
      ],
      "name": "RoleAdded",
      "type": "event"
    },
    {
      "anonymous": false,
      "inputs": [
        {
          "indexed": true,
          "name": "operator",
          "type": "address"
        },
        {
          "indexed": false,
          "name": "role",
          "type": "string"
        }
      ],
      "name": "RoleRemoved",
      "type": "event"
    },
    {
      "anonymous": false,
      "inputs": [
        {
          "indexed": true,
          "name": "previousOwner",
          "type": "address"
        }
      ],
      "name": "OwnershipRenounced",
      "type": "event"
    },
    {
      "anonymous": false,
      "inputs": [
        {
          "indexed": true,
          "name": "previousOwner",
          "type": "address"
        },
        {
          "indexed": true,
          "name": "newOwner",
          "type": "address"
        }
      ],
      "name": "OwnershipTransferred",
      "type": "event"
    },
    {
      "constant": false,
      "inputs": [
        {
          "name": "_rate",
          "type": "uint256"
        }
      ],
      "name": "setRate",
      "outputs": [],
      "payable": false,
      "stateMutability": "nonpayable",
      "type": "function"
    },
    {
      "constant": false,
      "inputs": [
        {
          "name": "_stageNumber",
          "type": "uint256"
        },
        {
          "name": "_startTime",
          "type": "uint256"
        },
        {
          "name": "_endTime",
          "type": "uint256"
        }
      ],
      "name": "setStage",
      "outputs": [],
      "payable": false,
      "stateMutability": "nonpayable",
      "type": "function"
    },
    {
      "constant": true,
      "inputs": [
        {
          "name": "_currentTime",
          "type": "uint256"
        }
      ],
      "name": "getCurrentStage",
      "outputs": [
        {
          "name": "",
          "type": "uint256"
        },
        {
          "name": "",
          "type": "uint256"
        },
        {
          "name": "",
          "type": "uint256"
        },
        {
          "name": "",
          "type": "uint256"
        }
      ],
      "payable": false,
      "stateMutability": "view",
      "type": "function"
    },
    {
      "constant": false,
      "inputs": [
        {
          "name": "_teamFund",
          "type": "address"
        },
        {
          "name": "_privateSaleFund",
          "type": "address"
        }
      ],
      "name": "finish",
      "outputs": [],
      "payable": false,
      "stateMutability": "nonpayable",
      "type": "function"
    }
  ],
  "bytecode": "0x60806040526000600960006101000a81548160ff0219169083151502179055506b06765c793fa10079d0000000600e55620000556002600e54620003b96401000000000262002f15179091906401000000009004565b600f556a295be96e64066972000000601055620000b260105462000095600f54600e54620003d064010000000002620033e3179091906401000000009004565b620003d064010000000002620033e3179091906401000000009004565b6011556a01a784379d99db420000006012556a18d0bf423c03d8de000000601355348015620000e057600080fd5b5060405160a080620049bc83398101806040528101908080519060200190929190805190602001909291908051906020019092919080519060200190929190805190602001909291905050506012548585601154868686336000806101000a81548173ffffffffffffffffffffffffffffffffffffffff021916908373ffffffffffffffffffffffffffffffffffffffff1602179055506000831115156200018757600080fd5b600073ffffffffffffffffffffffffffffffffffffffff168273ffffffffffffffffffffffffffffffffffffffff1614151515620001c457600080fd5b600073ffffffffffffffffffffffffffffffffffffffff168173ffffffffffffffffffffffffffffffffffffffff16141515156200020157600080fd5b8260048190555081600360006101000a81548173ffffffffffffffffffffffffffffffffffffffff021916908373ffffffffffffffffffffffffffffffffffffffff16021790555080600260006101000a81548173ffffffffffffffffffffffffffffffffffffffff021916908373ffffffffffffffffffffffffffffffffffffffff1602179055505050506000811115156200029d57600080fd5b8060068190555050428210151515620002b557600080fd5b818110151515620002c557600080fd5b81600781905550806008819055505050600081111515620002e557600080fd5b600360009054906101000a900473ffffffffffffffffffffffffffffffffffffffff1662000312620003ea565b808273ffffffffffffffffffffffffffffffffffffffff1673ffffffffffffffffffffffffffffffffffffffff168152602001915050604051809103906000f08015801562000365573d6000803e3d6000fd5b50600b60006101000a81548173ffffffffffffffffffffffffffffffffffffffff021916908373ffffffffffffffffffffffffffffffffffffffff16021790555080600a81905550505050505050620003fb565b60008183811515620003c757fe5b04905092915050565b6000828211151515620003df57fe5b818303905092915050565b604051610dd58062003be783390190565b6137dc806200040b6000396000f3006080604052600436106101d8576000357c0100000000000000000000000000000000000000000000000000000000900463ffffffff1680630988ca8c146104065780631515bc2b1461048f57806318b919e9146104be5780631c652ec81461054e578063217fe6c61461058f5780632458d4721461063057806324953eaa14610686578063286dd3f5146106ec5780632c4e722e1461072f57806334fcf4371461075a578063355274ea1461078757806340193883146107b25780634042b66f146107dd5780634b6753bc146108085780634bb278f3146108335780634f9359451461084a578063521eb27314610879578063715018a6146108d0578063792c02ea146108e75780637b9417c8146109125780637d3d652214610955578063845ddcb21461098457806385daf8ea146109f35780638d4e408314610a1e5780638da5cb5b14610a4d578063906a26e014610aa457806398d2b33c14610acf5780639b19251a14610afa578063b5545a3c14610b55578063b7a8807c14610b6c578063dd9bc47e14610b97578063e2ec6ec314610bfa578063e6d4412214610c60578063e831574214610c8b578063ec8ac4d814610cb6578063f2fde38b14610cec578063fc0c546a14610d2f578063fde83a3414610d86575b6101e142610db1565b156103fa576013546101f234611029565b10151561028d576040517f08c379a000000000000000000000000000000000000000000000000000000000815260040180806020018281038252602d8152602001807f43616e6e6f7420627579206d6f726520746f6b656e73207468616e207468652081526020017f70726573616c65206c696d69740000000000000000000000000000000000000081525060400191505060405180910390fd5b601354600260009054906101000a900473ffffffffffffffffffffffffffffffffffffffff1673ffffffffffffffffffffffffffffffffffffffff166318160ddd6040518163ffffffff167c0100000000000000000000000000000000000000000000000000000000028152600401602060405180830381600087803b15801561031657600080fd5b505af115801561032a573d6000803e3d6000fd5b505050506040513d602081101561034057600080fd5b81019080805190602001909291905050501015156103ec576040517f08c379a000000000000000000000000000000000000000000000000000000000815260040180806020018281038252602d8152602001807f43616e6e6f7420627579206d6f726520746f6b656e73207468616e207468652081526020017f70726573616c65206c696d69740000000000000000000000000000000000000081525060400191505060405180910390fd5b6103f53361105d565b610404565b6104033361105d565b5b005b34801561041257600080fd5b5061048d600480360381019080803573ffffffffffffffffffffffffffffffffffffffff169060200190929190803590602001908201803590602001908080601f016020809104026020016040519081016040528093929190818152602001838380828437820191505050505050919291929050505061112b565b005b34801561049b57600080fd5b506104a46111ac565b604051808215151515815260200191505060405180910390f35b3480156104ca57600080fd5b506104d36111b8565b6040518080602001828103825283818151815260200191508051906020019080838360005b838110156105135780820151818401526020810190506104f8565b50505050905090810190601f1680156105405780820380516001836020036101000a031916815260200191505b509250505060405180910390f35b34801561055a57600080fd5b5061058d6004803603810190808035906020019092919080359060200190929190803590602001909291905050506111f1565b005b34801561059b57600080fd5b50610616600480360381019080803573ffffffffffffffffffffffffffffffffffffffff169060200190929190803590602001908201803590602001908080601f0160208091040260200160405190810160405280939291908181526020018383808284378201915050505050509192919290505050611a25565b604051808215151515815260200191505060405180910390f35b34801561063c57600080fd5b5061065b60048036038101908080359060200190929190505050611aac565b6040518085815260200184815260200183815260200182815260200194505050505060405180910390f35b34801561069257600080fd5b506106ea60048036038101908080359060200190820180359060200190808060200260200160405190810160405280939291908181526020018383602002808284378201915050505050509192919290505050611b1f565b005b3480156106f857600080fd5b5061072d600480360381019080803573ffffffffffffffffffffffffffffffffffffffff169060200190929190505050611bbb565b005b34801561073b57600080fd5b50610744611c58565b6040518082815260200191505060405180910390f35b34801561076657600080fd5b5061078560048036038101908080359060200190929190505050611c5e565b005b34801561079357600080fd5b5061079c611ef8565b6040518082815260200191505060405180910390f35b3480156107be57600080fd5b506107c7611efe565b6040518082815260200191505060405180910390f35b3480156107e957600080fd5b506107f2611f04565b6040518082815260200191505060405180910390f35b34801561081457600080fd5b5061081d611f0a565b6040518082815260200191505060405180910390f35b34801561083f57600080fd5b50610848611f10565b005b34801561085657600080fd5b5061085f611feb565b604051808215151515815260200191505060405180910390f35b34801561088557600080fd5b5061088e611ffa565b604051808273ffffffffffffffffffffffffffffffffffffffff1673ffffffffffffffffffffffffffffffffffffffff16815260200191505060405180910390f35b3480156108dc57600080fd5b506108e5612020565b005b3480156108f357600080fd5b506108fc612122565b6040518082815260200191505060405180910390f35b34801561091e57600080fd5b50610953600480360381019080803573ffffffffffffffffffffffffffffffffffffffff169060200190929190505050612128565b005b34801561096157600080fd5b5061096a6121c5565b604051808215151515815260200191505060405180910390f35b34801561099057600080fd5b506109af600480360381019080803590602001909291905050506121d4565b604051808660038111156109bf57fe5b60ff168152602001858152602001848152602001838152602001821515151581526020019550505050505060405180910390f35b3480156109ff57600080fd5b50610a08612224565b6040518082815260200191505060405180910390f35b348015610a2a57600080fd5b50610a3361222a565b604051808215151515815260200191505060405180910390f35b348015610a5957600080fd5b50610a6261223d565b604051808273ffffffffffffffffffffffffffffffffffffffff1673ffffffffffffffffffffffffffffffffffffffff16815260200191505060405180910390f35b348015610ab057600080fd5b50610ab9612262565b6040518082815260200191505060405180910390f35b348015610adb57600080fd5b50610ae4612268565b6040518082815260200191505060405180910390f35b348015610b0657600080fd5b50610b3b600480360381019080803573ffffffffffffffffffffffffffffffffffffffff16906020019092919050505061226e565b604051808215151515815260200191505060405180910390f35b348015610b6157600080fd5b50610b6a6122b6565b005b348015610b7857600080fd5b50610b816123bc565b6040518082815260200191505060405180910390f35b348015610ba357600080fd5b50610bf8600480360381019080803573ffffffffffffffffffffffffffffffffffffffff169060200190929190803573ffffffffffffffffffffffffffffffffffffffff1690602001909291905050506123c2565b005b348015610c0657600080fd5b50610c5e60048036038101908080359060200190820180359060200190808060200260200160405190810160405280939291908181526020018383602002808284378201915050505050509192919290505050612786565b005b348015610c6c57600080fd5b50610c75612822565b6040518082815260200191505060405180910390f35b348015610c9757600080fd5b50610ca0612828565b6040518082815260200191505060405180910390f35b610cea600480360381019080803573ffffffffffffffffffffffffffffffffffffffff16906020019092919050505061105d565b005b348015610cf857600080fd5b50610d2d600480360381019080803573ffffffffffffffffffffffffffffffffffffffff16906020019092919050505061282e565b005b348015610d3b57600080fd5b50610d44612895565b604051808273ffffffffffffffffffffffffffffffffffffffff1673ffffffffffffffffffffffffffffffffffffffff16815260200191505060405180910390f35b348015610d9257600080fd5b50610d9b6128bb565b6040518082815260200191505060405180910390f35b6000610dbb613773565b610dc3613773565b610dcb613773565b600c6000806003811115610ddb57fe5b815260200190815260200160002060a060405190810160405290816000820160009054906101000a900460ff166003811115610e1357fe5b6003811115610e1e57fe5b81526020016001820154815260200160028201548152602001600382015481526020016004820160009054906101000a900460ff1615151515815250509250600c600060016003811115610e6e57fe5b815260200190815260200160002060a060405190810160405290816000820160009054906101000a900460ff166003811115610ea657fe5b6003811115610eb157fe5b81526020016001820154815260200160028201548152602001600382015481526020016004820160009054906101000a900460ff1615151515815250509150600c600060026003811115610f0157fe5b815260200190815260200160002060a060405190810160405290816000820160009054906101000a900460ff166003811115610f3957fe5b6003811115610f4457fe5b81526020016001820154815260200160028201548152602001600382015481526020016004820160009054906101000a900460ff161515151581525050905082608001518015610f98575082602001518510155b8015610fa8575082604001518511155b15610fb65760019350611021565b81608001518015610fcb575081602001518510155b8015610fdb575081604001518511155b15610fe95760019350611021565b80608001518015610ffe575080602001518510155b801561100e575080604001518511155b1561101c5760019350611021565b600093505b505050919050565b6000611033613773565b61103c426128c1565b9050611055816060015184612d6b90919063ffffffff16565b915050919050565b60008034915061106d8383612da3565b61107682611029565b905061108d82600554612df290919063ffffffff16565b60058190555061109d8382612e0e565b8273ffffffffffffffffffffffffffffffffffffffff163373ffffffffffffffffffffffffffffffffffffffff167f623b3804fa71d67900d064613da8f94b9617215ee90799290593e1745087ad188484604051808381526020018281526020019250505060405180910390a36111148383612e1c565b61111c612e20565b6111268383612ef8565b505050565b6111a8826001836040518082805190602001908083835b6020831015156111675780518252602082019150602081019050602083039250611142565b6001836020036101000a0380198251168184511680821785525050505050509050019150509081526020016040518091039020612efc90919063ffffffff16565b5050565b60006008544211905090565b6040805190810160405280600981526020017f77686974656c697374000000000000000000000000000000000000000000000081525081565b6000809054906101000a900473ffffffffffffffffffffffffffffffffffffffff1673ffffffffffffffffffffffffffffffffffffffff163373ffffffffffffffffffffffffffffffffffffffff1614151561124c57600080fd5b60075482101515156112ec576040517f08c379a000000000000000000000000000000000000000000000000000000000815260040180806020018281038252602d8152602001807f53746172742074696d65206973206c6f776572207468616e207468652049434f81526020017f206f70656e696e672074696d650000000000000000000000000000000000000081525060400191505060405180910390fd5b81811015151561138a576040517f08c379a00000000000000000000000000000000000000000000000000000000081526004018080602001828103825260218152602001807f456e642074696d65206973206c6f776572207468616e2073746172742074696d81526020017f650000000000000000000000000000000000000000000000000000000000000081525060400191505060405180910390fd5b600854811115151561142a576040517f08c379a000000000000000000000000000000000000000000000000000000000815260040180806020018281038252602b8152602001807f456e642074696d65206973207570706572207468616e207468652049434f206381526020017f6c6f73696e672074696d6500000000000000000000000000000000000000000081525060400191505060405180910390fd5b6000600381111561143757fe5b83148015611477575060001515600c600080600381111561145457fe5b815260200190815260200160002060040160009054906101000a900460ff161515145b1561158e5760a0604051908101604052806000600381111561149557fe5b81526020018381526020018281526020016114e36114d260646114c46014600454612d6b90919063ffffffff16565b612f1590919063ffffffff16565b600454612df290919063ffffffff16565b815260200160011515815250600c60008060038111156114ff57fe5b815260200190815260200160002060008201518160000160006101000a81548160ff0219169083600381111561153157fe5b021790555060208201518160010155604082015181600201556060820151816003015560808201518160040160006101000a81548160ff021916908315150217905550905050600d60008154809291906001019190505550611a20565b6001600381111561159b57fe5b831480156115dc575060001515600c6000600160038111156115b957fe5b815260200190815260200160002060040160009054906101000a900460ff161515145b156116f45760a060405190810160405280600160038111156115fa57fe5b81526020018381526020018281526020016116486116376064611629600a600454612d6b90919063ffffffff16565b612f1590919063ffffffff16565b600454612df290919063ffffffff16565b815260200160011515815250600c60006001600381111561166557fe5b815260200190815260200160002060008201518160000160006101000a81548160ff0219169083600381111561169757fe5b021790555060208201518160010155604082015181600201556060820151816003015560808201518160040160006101000a81548160ff021916908315150217905550905050600d60008154809291906001019190505550611a1f565b6002600381111561170157fe5b83148015611742575060001515600c60006002600381111561171f57fe5b815260200190815260200160002060040160009054906101000a900460ff161515145b1561185a5760a0604051908101604052806002600381111561176057fe5b81526020018381526020018281526020016117ae61179d606461178f6005600454612d6b90919063ffffffff16565b612f1590919063ffffffff16565b600454612df290919063ffffffff16565b815260200160011515815250600c6000600260038111156117cb57fe5b815260200190815260200160002060008201518160000160006101000a81548160ff021916908360038111156117fd57fe5b021790555060208201518160010155604082015181600201556060820151816003015560808201518160040160006101000a81548160ff021916908315150217905550905050600d60008154809291906001019190505550611a1e565b60038081111561186657fe5b831480156118a6575060001515600c600060038081111561188357fe5b815260200190815260200160002060040160009054906101000a900460ff161515145b15611a1d576008548114151561194a576040517f08c379a000000000000000000000000000000000000000000000000000000000815260040180806020018281038252603d8152602001807f4d61696e20737461676520656e642074696d65206d757374206265207468652081526020017f73616d65206173207468652063726f776473616c6520656e6474696d6500000081525060400191505060405180910390fd5b60a06040519081016040528060038081111561196257fe5b8152602001838152602001828152602001600454815260200160011515815250600c600060038081111561199257fe5b815260200190815260200160002060008201518160000160006101000a81548160ff021916908360038111156119c457fe5b021790555060208201518160010155604082015181600201556060820151816003015560808201518160040160006101000a81548160ff021916908315150217905550905050600d600081548092919060010191905055505b5b5b5b505050565b6000611aa4836001846040518082805190602001908083835b602083101515611a635780518252602082019150602081019050602083039250611a3e565b6001836020036101000a0380198251168184511680821785525050505050509050019150509081526020016040518091039020612f2b90919063ffffffff16565b905092915050565b600080600080611aba613773565b611ac3866128c1565b9050806080015115611afb5780600001516003811115611adf57fe5b8160200151826040015183606001519450945094509450611b17565b6064600080600083935082925081915080905094509450945094505b509193509193565b60008060009054906101000a900473ffffffffffffffffffffffffffffffffffffffff1673ffffffffffffffffffffffffffffffffffffffff163373ffffffffffffffffffffffffffffffffffffffff16141515611b7c57600080fd5b600090505b8151811015611bb757611baa8282815181101515611b9b57fe5b90602001906020020151611bbb565b8080600101915050611b81565b5050565b6000809054906101000a900473ffffffffffffffffffffffffffffffffffffffff1673ffffffffffffffffffffffffffffffffffffffff163373ffffffffffffffffffffffffffffffffffffffff16141515611c1657600080fd5b611c55816040805190810160405280600981526020017f77686974656c6973740000000000000000000000000000000000000000000000815250612f84565b50565b60045481565b6000809054906101000a900473ffffffffffffffffffffffffffffffffffffffff1673ffffffffffffffffffffffffffffffffffffffff163373ffffffffffffffffffffffffffffffffffffffff16141515611cb957600080fd5b80600481905550600c6000806003811115611cd057fe5b815260200190815260200160002060040160009054906101000a900460ff1615611d5b57611d31611d206064611d126014600454612d6b90919063ffffffff16565b612f1590919063ffffffff16565b600454612df290919063ffffffff16565b600c6000806003811115611d4157fe5b815260200190815260200160002060030181905550611ef5565b600c600060016003811115611d6c57fe5b815260200190815260200160002060040160009054906101000a900460ff1615611df857611dcd611dbc6064611dae600a600454612d6b90919063ffffffff16565b612f1590919063ffffffff16565b600454612df290919063ffffffff16565b600c600060016003811115611dde57fe5b815260200190815260200160002060030181905550611ef4565b600c600060026003811115611e0957fe5b815260200190815260200160002060040160009054906101000a900460ff1615611e9557611e6a611e596064611e4b6005600454612d6b90919063ffffffff16565b612f1590919063ffffffff16565b600454612df290919063ffffffff16565b600c600060026003811115611e7b57fe5b815260200190815260200160002060030181905550611ef3565b600c6000600380811115611ea557fe5b815260200190815260200160002060040160009054906101000a900460ff1615611ef257600454600c6000600380811115611edc57fe5b8152602001908152602001600020600301819055505b5b5b5b50565b60065481565b600a5481565b60055481565b60085481565b6000809054906101000a900473ffffffffffffffffffffffffffffffffffffffff1673ffffffffffffffffffffffffffffffffffffffff163373ffffffffffffffffffffffffffffffffffffffff16141515611f6b57600080fd5b600960009054906101000a900460ff16151515611f8757600080fd5b611f8f6111ac565b1515611f9a57600080fd5b611fa26130b8565b7f6823b073d48d6e3a7d385eeb601452d680e74bb46afe3255a7d778f3a9b1768160405160405180910390a16001600960006101000a81548160ff021916908315150217905550565b60006006546005541015905090565b600360009054906101000a900473ffffffffffffffffffffffffffffffffffffffff1681565b6000809054906101000a900473ffffffffffffffffffffffffffffffffffffffff1673ffffffffffffffffffffffffffffffffffffffff163373ffffffffffffffffffffffffffffffffffffffff1614151561207b57600080fd5b6000809054906101000a900473ffffffffffffffffffffffffffffffffffffffff1673ffffffffffffffffffffffffffffffffffffffff167ff8df31144d9c2f0f6b59d69b8b98abd5459d07f2742c4df920b25aae33c6482060405160405180910390a260008060006101000a81548173ffffffffffffffffffffffffffffffffffffffff021916908373ffffffffffffffffffffffffffffffffffffffff160217905550565b600d5481565b6000809054906101000a900473ffffffffffffffffffffffffffffffffffffffff1673ffffffffffffffffffffffffffffffffffffffff163373ffffffffffffffffffffffffffffffffffffffff1614151561218357600080fd5b6121c2816040805190810160405280600981526020017f77686974656c69737400000000000000000000000000000000000000000000008152506132af565b50565b6000600a546005541015905090565b600c6020528060005260406000206000915090508060000160009054906101000a900460ff16908060010154908060020154908060030154908060040160009054906101000a900460ff16905085565b60105481565b600960009054906101000a900460ff1681565b6000809054906101000a900473ffffffffffffffffffffffffffffffffffffffff1681565b60125481565b60115481565b60006122af826040805190810160405280600981526020017f77686974656c6973740000000000000000000000000000000000000000000000815250611a25565b9050919050565b600960009054906101000a900460ff1615156122d157600080fd5b6122d96121c5565b1515156122e557600080fd5b600b60009054906101000a900473ffffffffffffffffffffffffffffffffffffffff1673ffffffffffffffffffffffffffffffffffffffff166351cff8d9336040518263ffffffff167c0100000000000000000000000000000000000000000000000000000000028152600401808273ffffffffffffffffffffffffffffffffffffffff1673ffffffffffffffffffffffffffffffffffffffff168152602001915050600060405180830381600087803b1580156123a257600080fd5b505af11580156123b6573d6000803e3d6000fd5b50505050565b60075481565b6000806000809054906101000a900473ffffffffffffffffffffffffffffffffffffffff1673ffffffffffffffffffffffffffffffffffffffff163373ffffffffffffffffffffffffffffffffffffffff1614151561242057600080fd5b600073ffffffffffffffffffffffffffffffffffffffff168473ffffffffffffffffffffffffffffffffffffffff16141515156124c5576040517f08c379a000000000000000000000000000000000000000000000000000000000815260040180806020018281038252601e8152602001807f5465616d2066756e642061646472657373206973206e6f742076616c6964000081525060200191505060405180910390fd5b600073ffffffffffffffffffffffffffffffffffffffff168373ffffffffffffffffffffffffffffffffffffffff1614151515612590576040517f08c379a00000000000000000000000000000000000000000000000000000000081526004018080602001828103825260268152602001807f507269766174652073616c652066756e642061646472657373206973206e6f7481526020017f2076616c6964000000000000000000000000000000000000000000000000000081525060400191505060405180910390fd5b600960009054906101000a900460ff16151515612661576040517f08c379a000000000000000000000000000000000000000000000000000000000815260040180806020018281038252604c8152602001807f43616e6e6f742070726f6365656420746f2066696e616c697a6520616e64207281526020017f656c6561736520746f6b656e206265666f72652074686520656e64206f66207481526020017f68652063726f776473616c65000000000000000000000000000000000000000081525060600191505060405180910390fd5b600260009054906101000a900473ffffffffffffffffffffffffffffffffffffffff1673ffffffffffffffffffffffffffffffffffffffff166318160ddd6040518163ffffffff167c0100000000000000000000000000000000000000000000000000000000028152600401602060405180830381600087803b1580156126e757600080fd5b505af11580156126fb573d6000803e3d6000fd5b505050506040513d602081101561271157600080fd5b81019080805190602001909291905050509150612739826006546133e390919063ffffffff16565b905060008111156127605761275981600f54612df290919063ffffffff16565b600f819055505b61276c84600f546133fc565b612778836010546133fc565b612780611f10565b50505050565b60008060009054906101000a900473ffffffffffffffffffffffffffffffffffffffff1673ffffffffffffffffffffffffffffffffffffffff163373ffffffffffffffffffffffffffffffffffffffff161415156127e357600080fd5b600090505b815181101561281e57612811828281518110151561280257fe5b90602001906020020151612128565b80806001019150506127e8565b5050565b60135481565b600e5481565b6000809054906101000a900473ffffffffffffffffffffffffffffffffffffffff1673ffffffffffffffffffffffffffffffffffffffff163373ffffffffffffffffffffffffffffffffffffffff1614151561288957600080fd5b6128928161350b565b50565b600260009054906101000a900473ffffffffffffffffffffffffffffffffffffffff1681565b600f5481565b6128c9613773565b600c60008060038111156128d957fe5b815260200190815260200160002060040160009054906101000a900460ff1680156129255750600c600080600381111561290f57fe5b8152602001908152602001600020600101548210155b80156129525750600c600080600381111561293c57fe5b8152602001908152602001600020600201548211155b156129ee57600c600080600381111561296757fe5b815260200190815260200160002060a060405190810160405290816000820160009054906101000a900460ff16600381111561299f57fe5b60038111156129aa57fe5b81526020016001820154815260200160028201548152602001600382015481526020016004820160009054906101000a900460ff1615151515815250509050612d66565b600c6000600160038111156129ff57fe5b815260200190815260200160002060040160009054906101000a900460ff168015612a4c5750600c600060016003811115612a3657fe5b8152602001908152602001600020600101548210155b8015612a7a5750600c600060016003811115612a6457fe5b8152602001908152602001600020600201548211155b15612b1757600c600060016003811115612a9057fe5b815260200190815260200160002060a060405190810160405290816000820160009054906101000a900460ff166003811115612ac857fe5b6003811115612ad357fe5b81526020016001820154815260200160028201548152602001600382015481526020016004820160009054906101000a900460ff1615151515815250509050612d66565b600c600060026003811115612b2857fe5b815260200190815260200160002060040160009054906101000a900460ff168015612b755750600c600060026003811115612b5f57fe5b8152602001908152602001600020600101548210155b8015612ba35750600c600060026003811115612b8d57fe5b8152602001908152602001600020600201548211155b15612c4057600c600060026003811115612bb957fe5b815260200190815260200160002060a060405190810160405290816000820160009054906101000a900460ff166003811115612bf157fe5b6003811115612bfc57fe5b81526020016001820154815260200160028201548152602001600382015481526020016004820160009054906101000a900460ff1615151515815250509050612d66565b600c6000600380811115612c5057fe5b815260200190815260200160002060040160009054906101000a900460ff168015612c9c5750600c6000600380811115612c8657fe5b8152602001908152602001600020600101548210155b8015612cc95750600c6000600380811115612cb357fe5b8152602001908152602001600020600201548211155b15612d6557600c6000600380811115612cde57fe5b815260200190815260200160002060a060405190810160405290816000820160009054906101000a900460ff166003811115612d1657fe5b6003811115612d2157fe5b81526020016001820154815260200160028201548152602001600382015481526020016004820160009054906101000a900460ff1615151515815250509050612d66565b5b919050565b600080831415612d7e5760009050612d9d565b8183029050818382811515612d8f57fe5b04141515612d9957fe5b8090505b92915050565b81612de3816040805190810160405280600981526020017f77686974656c697374000000000000000000000000000000000000000000000081525061112b565b612ded8383613605565b505050565b60008183019050828110151515612e0557fe5b80905092915050565b612e1882826133fc565b5050565b5050565b600b60009054906101000a900473ffffffffffffffffffffffffffffffffffffffff1673ffffffffffffffffffffffffffffffffffffffff1663f340fa0134336040518363ffffffff167c0100000000000000000000000000000000000000000000000000000000028152600401808273ffffffffffffffffffffffffffffffffffffffff1673ffffffffffffffffffffffffffffffffffffffff1681526020019150506000604051808303818588803b158015612edd57600080fd5b505af1158015612ef1573d6000803e3d6000fd5b5050505050565b5050565b612f068282612f2b565b1515612f1157600080fd5b5050565b60008183811515612f2257fe5b04905092915050565b60008260000160008373ffffffffffffffffffffffffffffffffffffffff1673ffffffffffffffffffffffffffffffffffffffff16815260200190815260200160002060009054906101000a900460ff16905092915050565b613001826001836040518082805190602001908083835b602083101515612fc05780518252602082019150602081019050602083039250612f9b565b6001836020036101000a038019825116818451168082178552505050505050905001915050908152602001604051809103902061363290919063ffffffff16565b8173ffffffffffffffffffffffffffffffffffffffff167fd211483f91fc6eff862467f8de606587a30c8fc9981056f051b897a418df803a826040518080602001828103825283818151815260200191508051906020019080838360005b8381101561307a57808201518184015260208101905061305f565b50505050905090810190601f1680156130a75780820380516001836020036101000a031916815260200191505b509250505060405180910390a25050565b6130c06121c5565b1561320657600b60009054906101000a900473ffffffffffffffffffffffffffffffffffffffff1673ffffffffffffffffffffffffffffffffffffffff166343d726d66040518163ffffffff167c0100000000000000000000000000000000000000000000000000000000028152600401600060405180830381600087803b15801561314b57600080fd5b505af115801561315f573d6000803e3d6000fd5b50505050600b60009054906101000a900473ffffffffffffffffffffffffffffffffffffffff1673ffffffffffffffffffffffffffffffffffffffff16639af6549a6040518163ffffffff167c0100000000000000000000000000000000000000000000000000000000028152600401600060405180830381600087803b1580156131e957600080fd5b505af11580156131fd573d6000803e3d6000fd5b505050506132a5565b600b60009054906101000a900473ffffffffffffffffffffffffffffffffffffffff1673ffffffffffffffffffffffffffffffffffffffff16638c52dc416040518163ffffffff167c0100000000000000000000000000000000000000000000000000000000028152600401600060405180830381600087803b15801561328c57600080fd5b505af11580156132a0573d6000803e3d6000fd5b505050505b6132ad613690565b565b61332c826001836040518082805190602001908083835b6020831015156132eb57805182526020820191506020810190506020830392506132c6565b6001836020036101000a038019825116818451168082178552505050505050905001915050908152602001604051809103902061369290919063ffffffff16565b8173ffffffffffffffffffffffffffffffffffffffff167fbfec83d64eaa953f2708271a023ab9ee82057f8f3578d548c1a4ba0b5b700489826040518080602001828103825283818151815260200191508051906020019080838360005b838110156133a557808201518184015260208101905061338a565b50505050905090810190601f1680156133d25780820380516001836020036101000a031916815260200191505b509250505060405180910390a25050565b60008282111515156133f157fe5b818303905092915050565b600260009054906101000a900473ffffffffffffffffffffffffffffffffffffffff1673ffffffffffffffffffffffffffffffffffffffff166340c10f1983836040518363ffffffff167c0100000000000000000000000000000000000000000000000000000000028152600401808373ffffffffffffffffffffffffffffffffffffffff1673ffffffffffffffffffffffffffffffffffffffff16815260200182815260200192505050602060405180830381600087803b1580156134c157600080fd5b505af11580156134d5573d6000803e3d6000fd5b505050506040513d60208110156134eb57600080fd5b8101908080519060200190929190505050151561350757600080fd5b5050565b600073ffffffffffffffffffffffffffffffffffffffff168173ffffffffffffffffffffffffffffffffffffffff161415151561354757600080fd5b8073ffffffffffffffffffffffffffffffffffffffff166000809054906101000a900473ffffffffffffffffffffffffffffffffffffffff1673ffffffffffffffffffffffffffffffffffffffff167f8be0079c531659141344cd1fd0a4f28419497f9722a3daafe3b4186f6b6457e060405160405180910390a3806000806101000a81548173ffffffffffffffffffffffffffffffffffffffff021916908373ffffffffffffffffffffffffffffffffffffffff16021790555050565b600754421015801561361957506008544211155b151561362457600080fd5b61362e82826136f0565b5050565b60008260000160008373ffffffffffffffffffffffffffffffffffffffff1673ffffffffffffffffffffffffffffffffffffffff16815260200190815260200160002060006101000a81548160ff0219169083151502179055505050565b565b60018260000160008373ffffffffffffffffffffffffffffffffffffffff1673ffffffffffffffffffffffffffffffffffffffff16815260200190815260200160002060006101000a81548160ff0219169083151502179055505050565b6136fa8282613723565b60065461371282600554612df290919063ffffffff16565b1115151561371f57600080fd5b5050565b600073ffffffffffffffffffffffffffffffffffffffff168273ffffffffffffffffffffffffffffffffffffffff161415151561375f57600080fd5b6000811415151561376f57600080fd5b5050565b60a0604051908101604052806000600381111561378c57fe5b815260200160008152602001600081526020016000815260200160001515815250905600a165627a7a723058202744ab05d89e218274d199dad0880148fc4c722249df23f5ba7855b12cde9ff60029608060405234801561001057600080fd5b50604051602080610dd583398101806040528101908080519060200190929190505050336000806101000a81548173ffffffffffffffffffffffffffffffffffffffff021916908373ffffffffffffffffffffffffffffffffffffffff160217905550600073ffffffffffffffffffffffffffffffffffffffff168173ffffffffffffffffffffffffffffffffffffffff16141515156100af57600080fd5b80600260016101000a81548173ffffffffffffffffffffffffffffffffffffffff021916908373ffffffffffffffffffffffffffffffffffffffff1602179055506000600260006101000a81548160ff0219169083600281111561010f57fe5b021790555050610cb1806101246000396000f3006080604052600436106100ba576000357c0100000000000000000000000000000000000000000000000000000000900463ffffffff16806338af3eed146100bf57806343d726d61461011657806351cff8d91461012d578063685ca19414610170578063715018a6146101cb5780638c52dc41146101e25780638da5cb5b146101f95780639af6549a14610250578063c19d93fb14610267578063e3a9db1a146102a0578063f2fde38b146102f7578063f340fa011461033a575b600080fd5b3480156100cb57600080fd5b506100d4610370565b604051808273ffffffffffffffffffffffffffffffffffffffff1673ffffffffffffffffffffffffffffffffffffffff16815260200191505060405180910390f35b34801561012257600080fd5b5061012b610396565b005b34801561013957600080fd5b5061016e600480360381019080803573ffffffffffffffffffffffffffffffffffffffff169060200190929190505050610476565b005b34801561017c57600080fd5b506101b1600480360381019080803573ffffffffffffffffffffffffffffffffffffffff169060200190929190505050610496565b604051808215151515815260200191505060405180910390f35b3480156101d757600080fd5b506101e06104c8565b005b3480156101ee57600080fd5b506101f76105ca565b005b34801561020557600080fd5b5061020e6106ab565b604051808273ffffffffffffffffffffffffffffffffffffffff1673ffffffffffffffffffffffffffffffffffffffff16815260200191505060405180910390f35b34801561025c57600080fd5b506102656106d0565b005b34801561027357600080fd5b5061027c610785565b6040518082600281111561028c57fe5b60ff16815260200191505060405180910390f35b3480156102ac57600080fd5b506102e1600480360381019080803573ffffffffffffffffffffffffffffffffffffffff169060200190929190505050610798565b6040518082815260200191505060405180910390f35b34801561030357600080fd5b50610338600480360381019080803573ffffffffffffffffffffffffffffffffffffffff1690602001909291905050506107e1565b005b61036e600480360381019080803573ffffffffffffffffffffffffffffffffffffffff169060200190929190505050610848565b005b600260019054906101000a900473ffffffffffffffffffffffffffffffffffffffff1681565b6000809054906101000a900473ffffffffffffffffffffffffffffffffffffffff1673ffffffffffffffffffffffffffffffffffffffff163373ffffffffffffffffffffffffffffffffffffffff161415156103f157600080fd5b600060028111156103fe57fe5b600260009054906101000a900460ff16600281111561041957fe5b14151561042557600080fd5b60028060006101000a81548160ff0219169083600281111561044357fe5b02179055507f1cdde67b72a90f19919ac732a437ac2f7a10fc128d28c2a6e525d89ce5cd9d3a60405160405180910390a1565b61047f81610496565b151561048a57600080fd5b61049381610888565b50565b6000600160028111156104a557fe5b600260009054906101000a900460ff1660028111156104c057fe5b149050919050565b6000809054906101000a900473ffffffffffffffffffffffffffffffffffffffff1673ffffffffffffffffffffffffffffffffffffffff163373ffffffffffffffffffffffffffffffffffffffff1614151561052357600080fd5b6000809054906101000a900473ffffffffffffffffffffffffffffffffffffffff1673ffffffffffffffffffffffffffffffffffffffff167ff8df31144d9c2f0f6b59d69b8b98abd5459d07f2742c4df920b25aae33c6482060405160405180910390a260008060006101000a81548173ffffffffffffffffffffffffffffffffffffffff021916908373ffffffffffffffffffffffffffffffffffffffff160217905550565b6000809054906101000a900473ffffffffffffffffffffffffffffffffffffffff1673ffffffffffffffffffffffffffffffffffffffff163373ffffffffffffffffffffffffffffffffffffffff1614151561062557600080fd5b6000600281111561063257fe5b600260009054906101000a900460ff16600281111561064d57fe5b14151561065957600080fd5b6001600260006101000a81548160ff0219169083600281111561067857fe5b02179055507f599d8e5a83cffb867d051598c4d70e805d59802d8081c1c7d6dffc5b6aca2b8960405160405180910390a1565b6000809054906101000a900473ffffffffffffffffffffffffffffffffffffffff1681565b6002808111156106dc57fe5b600260009054906101000a900460ff1660028111156106f757fe5b14151561070357600080fd5b600260019054906101000a900473ffffffffffffffffffffffffffffffffffffffff1673ffffffffffffffffffffffffffffffffffffffff166108fc3073ffffffffffffffffffffffffffffffffffffffff16319081150290604051600060405180830381858888f19350505050158015610782573d6000803e3d6000fd5b50565b600260009054906101000a900460ff1681565b6000600160008373ffffffffffffffffffffffffffffffffffffffff1673ffffffffffffffffffffffffffffffffffffffff168152602001908152602001600020549050919050565b6000809054906101000a900473ffffffffffffffffffffffffffffffffffffffff1673ffffffffffffffffffffffffffffffffffffffff163373ffffffffffffffffffffffffffffffffffffffff1614151561083c57600080fd5b61084581610a28565b50565b6000600281111561085557fe5b600260009054906101000a900460ff16600281111561087057fe5b14151561087c57600080fd5b61088581610b22565b50565b60008060009054906101000a900473ffffffffffffffffffffffffffffffffffffffff1673ffffffffffffffffffffffffffffffffffffffff163373ffffffffffffffffffffffffffffffffffffffff161415156108e557600080fd5b600160008373ffffffffffffffffffffffffffffffffffffffff1673ffffffffffffffffffffffffffffffffffffffff168152602001908152602001600020549050803073ffffffffffffffffffffffffffffffffffffffff16311015151561094a57fe5b6000600160008473ffffffffffffffffffffffffffffffffffffffff1673ffffffffffffffffffffffffffffffffffffffff168152602001908152602001600020819055508173ffffffffffffffffffffffffffffffffffffffff166108fc829081150290604051600060405180830381858888f193505050501580156109d5573d6000803e3d6000fd5b508173ffffffffffffffffffffffffffffffffffffffff167f7084f5476618d8e60b11ef0d7d3f06914655adb8793e28ff7f018d4c76d505d5826040518082815260200191505060405180910390a25050565b600073ffffffffffffffffffffffffffffffffffffffff168173ffffffffffffffffffffffffffffffffffffffff1614151515610a6457600080fd5b8073ffffffffffffffffffffffffffffffffffffffff166000809054906101000a900473ffffffffffffffffffffffffffffffffffffffff1673ffffffffffffffffffffffffffffffffffffffff167f8be0079c531659141344cd1fd0a4f28419497f9722a3daafe3b4186f6b6457e060405160405180910390a3806000806101000a81548173ffffffffffffffffffffffffffffffffffffffff021916908373ffffffffffffffffffffffffffffffffffffffff16021790555050565b60008060009054906101000a900473ffffffffffffffffffffffffffffffffffffffff1673ffffffffffffffffffffffffffffffffffffffff163373ffffffffffffffffffffffffffffffffffffffff16141515610b7f57600080fd5b349050610bd481600160008573ffffffffffffffffffffffffffffffffffffffff1673ffffffffffffffffffffffffffffffffffffffff16815260200190815260200160002054610c6990919063ffffffff16565b600160008473ffffffffffffffffffffffffffffffffffffffff1673ffffffffffffffffffffffffffffffffffffffff168152602001908152602001600020819055508173ffffffffffffffffffffffffffffffffffffffff167f2da466a7b24304f47e87fa2e1e5a81b9831ce54fec19055ce277ca2f39ba42c4826040518082815260200191505060405180910390a25050565b60008183019050828110151515610c7c57fe5b809050929150505600a165627a7a72305820cabc2021423b53ab195ce7f00637bd1a9d69c50156fbdc90d167504d1c97b3b30029",
  "source": "//solium-disable linebreak-style\r\n//solium-disable max-len\r\n\r\npragma solidity ^0.4.23;\r\n\r\nimport \"./CarborCoin.sol\";\r\nimport \"zeppelin-solidity/contracts/crowdsale/validation/CappedCrowdsale.sol\";\r\nimport \"zeppelin-solidity/contracts/crowdsale/distribution/RefundableCrowdsale.sol\";\r\nimport \"zeppelin-solidity/contracts/crowdsale/emission/MintedCrowdsale.sol\";\r\nimport \"zeppelin-solidity/contracts/crowdsale/validation/WhitelistedCrowdsale.sol\";\r\n\r\ncontract CarborCrowdsale is CappedCrowdsale, RefundableCrowdsale, MintedCrowdsale, WhitelistedCrowdsale {\r\n\r\n    // ICO Stages\r\n    // ==========\r\n    enum Stage { PreSaleBonus20Percent, PreSaleBonus10Percent, PreSaleBonus5Percent, MainSale }\r\n    struct StageDetail {\r\n        Stage stage;\r\n        uint startTime;\r\n        uint endTime;\r\n        uint rate;\r\n        bool exist;\r\n    }\r\n    mapping(uint => StageDetail) public stages;\r\n    uint public stagesLength;\r\n\r\n    // Token distribution\r\n    // ===================\r\n    uint256 public maxTokens = 2000000000000000000000000000; // 200 000 000 tokens\r\n    uint256 public tokensForTeam = maxTokens.div(2); // 100 000 000 tokens will be minted and shared between funders, developers, partners, bounties\r\n    uint256 public tokensForPrivateSale = 50000000000000000000000000; // 5 000 000 tokens will be minted for private sale and early investors\r\n    uint256 public maxSaleTokens = maxTokens.sub(tokensForTeam).sub(tokensForPrivateSale); // 95 000 000 tokens are available for the sale\r\n    uint256 public softCap = 2000000000000000000000000; //2 000 000 tokens are the soft cap when tokens will be refunded it the ICO does not reach this value\r\n    uint public limitPreSale  = 30000000000000000000000000; //Limit tokens for the presale => 30 000 000 tokens\r\n\r\n\r\n    // Constructor\r\n    // ===========\r\n    function CarborCrowdsale(uint256 _startTime, uint256 _endTime, uint _rate, address _wallet, CarborCoin _token) public\r\n        Crowdsale(_rate, _wallet, _token)\r\n        TimedCrowdsale(_startTime, _endTime)\r\n        RefundableCrowdsale(softCap)\r\n        CappedCrowdsale(maxSaleTokens) \r\n    {\r\n    }\r\n\r\n    //Stage management\r\n    // ===============\r\n\r\n    // Enable to change the rate\r\n    function setRate(uint _rate) public onlyOwner {\r\n        rate = _rate;\r\n        if (stages[uint(Stage.PreSaleBonus20Percent)].exist) {\r\n            stages[uint(Stage.PreSaleBonus20Percent)].rate = rate.add(rate.mul(20).div(100));\r\n        }\r\n        else if (stages[uint(Stage.PreSaleBonus10Percent)].exist) {\r\n            stages[uint(Stage.PreSaleBonus10Percent)].rate = rate.add(rate.mul(10).div(100));\r\n        }\r\n        else if (stages[uint(Stage.PreSaleBonus5Percent)].exist) {\r\n            stages[uint(Stage.PreSaleBonus5Percent)].rate = rate.add(rate.mul(5).div(100));\r\n        }\r\n        else if (stages[uint(Stage.MainSale)].exist) {\r\n            stages[uint(Stage.MainSale)].rate = rate;\r\n        }\r\n    }\r\n\r\n    //Define sale stage with its time boundaries\r\n    function setStage (uint _stageNumber, uint _startTime, uint _endTime) public onlyOwner {\r\n        // require(_startTime >= block.timestamp, \"Start time must be in the future\");\r\n        require(_startTime >= openingTime, \"Start time is lower than the ICO opening time\");\r\n        require(_endTime >= _startTime, \"End time is lower than start time\");\r\n        require(_endTime <= closingTime, \"End time is upper than the ICO closing time\");\r\n\r\n        if (_stageNumber == uint(Stage.PreSaleBonus20Percent) && stages[uint(Stage.PreSaleBonus20Percent)].exist == false) {\r\n            stages[uint(Stage.PreSaleBonus20Percent)] = StageDetail(Stage.PreSaleBonus20Percent, _startTime, _endTime, rate.add(rate.mul(20).div(100)), true);\r\n            stagesLength++;\r\n        }\r\n        else if (_stageNumber == uint(Stage.PreSaleBonus10Percent) && stages[uint(Stage.PreSaleBonus10Percent)].exist == false) {\r\n            stages[uint(Stage.PreSaleBonus10Percent)] = StageDetail(Stage.PreSaleBonus10Percent, _startTime, _endTime, rate.add(rate.mul(10).div(100)), true);\r\n            stagesLength++;\r\n        }\r\n        else if (_stageNumber == uint(Stage.PreSaleBonus5Percent) && stages[uint(Stage.PreSaleBonus5Percent)].exist == false) {\r\n            stages[uint(Stage.PreSaleBonus5Percent)] = StageDetail(Stage.PreSaleBonus5Percent, _startTime, _endTime, rate.add(rate.mul(5).div(100)), true);\r\n            stagesLength++;\r\n        }\r\n        else if (_stageNumber == uint(Stage.MainSale) && stages[uint(Stage.MainSale)].exist == false) {\r\n            require(_endTime == closingTime, \"Main stage end time must be the same as the crowdsale endtime\");\r\n            stages[uint(Stage.MainSale)] = StageDetail(Stage.MainSale, _startTime, _endTime, rate, true);\r\n            stagesLength++;\r\n        }\r\n    }\r\n\r\n    //Get the current stage for the current date\r\n    function _findCurrentStage(uint _currentTime) internal view returns (StageDetail) {\r\n        if (stages[uint(Stage.PreSaleBonus20Percent)].exist && _currentTime >= stages[uint(Stage.PreSaleBonus20Percent)].startTime && _currentTime <= stages[uint(Stage.PreSaleBonus20Percent)].endTime) {\r\n            return stages[uint(Stage.PreSaleBonus20Percent)];\r\n        }\r\n        else if (stages[uint(Stage.PreSaleBonus10Percent)].exist && _currentTime >= stages[uint(Stage.PreSaleBonus10Percent)].startTime && _currentTime <= stages[uint(Stage.PreSaleBonus10Percent)].endTime) {\r\n            return stages[uint(Stage.PreSaleBonus10Percent)];\r\n        }\r\n        else if (stages[uint(Stage.PreSaleBonus5Percent)].exist && _currentTime >= stages[uint(Stage.PreSaleBonus5Percent)].startTime && _currentTime <= stages[uint(Stage.PreSaleBonus5Percent)].endTime) {\r\n            return stages[uint(Stage.PreSaleBonus5Percent)];\r\n        }\r\n        else if (stages[uint(Stage.MainSale)].exist && _currentTime >= stages[uint(Stage.MainSale)].startTime && _currentTime <= stages[uint(Stage.MainSale)].endTime) {\r\n            return stages[uint(Stage.MainSale)];\r\n        }\r\n    }\r\n\r\n    function _isOnPreSale(uint _currentTime) internal view returns (bool) {\r\n\r\n        StageDetail memory stage1 = stages[uint(Stage.PreSaleBonus20Percent)];\r\n        StageDetail memory stage2 = stages[uint(Stage.PreSaleBonus10Percent)];\r\n        StageDetail memory stage3 = stages[uint(Stage.PreSaleBonus5Percent)];\r\n\r\n        if (stage1.exist && _currentTime >= stage1.startTime && _currentTime <= stage1.endTime) {\r\n            return true;\r\n        }\r\n        else if (stage2.exist && _currentTime >= stage2.startTime && _currentTime <= stage2.endTime) {\r\n            return true;\r\n        }\r\n        else if (stage3.exist && _currentTime >= stage3.startTime && _currentTime <= stage3.endTime) {\r\n            return true;\r\n        }\r\n        else {\r\n            return false;\r\n        }\r\n    }\r\n\r\n    \r\n    // Get the current stage. Get the stage, the start time, the end time and the rate\r\n    function getCurrentStage (uint _currentTime) public view returns (uint, uint, uint, uint) {\r\n        StageDetail memory _stage = _findCurrentStage(_currentTime);\r\n        if (_stage.exist) {\r\n            return (uint(_stage.stage), _stage.startTime, _stage.endTime, _stage.rate);\r\n        }\r\n        else {\r\n            return (100, 0,0,0);\r\n        }\r\n    }   \r\n\r\n    // Token purchase\r\n    // ==============\r\n\r\n    // Override \r\n    // Get the token amount using the current rate\r\n    function _getTokenAmount(uint256 _weiAmount)\r\n        internal view returns (uint256)\r\n    {\r\n        StageDetail memory _stage = _findCurrentStage(now);\r\n        return _weiAmount.mul(_stage.rate);\r\n    }\r\n    \r\n    //Receive payments\r\n    function () external payable {\r\n        if (_isOnPreSale(now)) {\r\n            require(_getTokenAmount(msg.value) < limitPreSale, \"Cannot buy more tokens than the presale limit\");\r\n            require(token.totalSupply() < limitPreSale, \"Cannot buy more tokens than the presale limit\");\r\n            buyTokens(msg.sender);\r\n        }\r\n        else {\r\n            buyTokens(msg.sender);\r\n        }\r\n    }\r\n\r\n    // Finish: Mint Extra Tokens as needed before finalizing the Crowdsale.\r\n    // ====================================================================\r\n    function finish(address _teamFund, address _privateSaleFund) public onlyOwner {\r\n        require(_teamFund != address(0), \"Team fund address is not valid\");\r\n        require(_privateSaleFund != address(0), \"Private sale fund address is not valid\");\r\n        require(!isFinalized, \"Cannot proceed to finalize and release token before the end of the crowdsale\");\r\n        uint256 alreadyMinted = token.totalSupply();\r\n\r\n        uint unsoldTokens = cap.sub(alreadyMinted);\r\n        if (unsoldTokens > 0) {\r\n            tokensForTeam = tokensForTeam.add(unsoldTokens);\r\n        }\r\n\r\n        super._deliverTokens(_teamFund, tokensForTeam);\r\n        super._deliverTokens(_privateSaleFund, tokensForPrivateSale);\r\n        finalize();\r\n    }\r\n}",
  "sourcePath": "D:\\Apps\\carbor\\SmartContracts\\contracts\\CarborCrowdsale.sol",
  "compiler": {
    "name": "solc",
    "version": "0.4.24+commit.e67f0147.Emscripten.clang"
  },
  "schemaVersion": "2.0.0",
  "updatedAt": "2018-09-30T14:30:38.376Z"
}