{
  "contractName": "CarborCrowdsale",
  "abi": [
    {
      "constant": true,
      "inputs": [
        {
          "name": "_operator",
          "type": "address"
        },
        {
          "name": "_role",
          "type": "string"
        }
      ],
      "name": "checkRole",
      "outputs": [],
      "payable": false,
      "stateMutability": "view",
      "type": "function"
    },
    {
      "constant": true,
      "inputs": [],
      "name": "hasClosed",
      "outputs": [
        {
          "name": "",
          "type": "bool"
        }
      ],
      "payable": false,
      "stateMutability": "view",
      "type": "function"
    },
    {
      "constant": true,
      "inputs": [],
      "name": "ROLE_WHITELISTED",
      "outputs": [
        {
          "name": "",
          "type": "string"
        }
      ],
      "payable": false,
      "stateMutability": "view",
      "type": "function"
    },
    {
      "constant": true,
      "inputs": [
        {
          "name": "_operator",
          "type": "address"
        },
        {
          "name": "_role",
          "type": "string"
        }
      ],
      "name": "hasRole",
      "outputs": [
        {
          "name": "",
          "type": "bool"
        }
      ],
      "payable": false,
      "stateMutability": "view",
      "type": "function"
    },
    {
      "constant": false,
      "inputs": [
        {
          "name": "_operators",
          "type": "address[]"
        }
      ],
      "name": "removeAddressesFromWhitelist",
      "outputs": [],
      "payable": false,
      "stateMutability": "nonpayable",
      "type": "function"
    },
    {
      "constant": false,
      "inputs": [
        {
          "name": "_operator",
          "type": "address"
        }
      ],
      "name": "removeAddressFromWhitelist",
      "outputs": [],
      "payable": false,
      "stateMutability": "nonpayable",
      "type": "function"
    },
    {
      "constant": true,
      "inputs": [],
      "name": "rate",
      "outputs": [
        {
          "name": "",
          "type": "uint256"
        }
      ],
      "payable": false,
      "stateMutability": "view",
      "type": "function"
    },
    {
      "constant": true,
      "inputs": [],
      "name": "cap",
      "outputs": [
        {
          "name": "",
          "type": "uint256"
        }
      ],
      "payable": false,
      "stateMutability": "view",
      "type": "function"
    },
    {
      "constant": true,
      "inputs": [],
      "name": "goal",
      "outputs": [
        {
          "name": "",
          "type": "uint256"
        }
      ],
      "payable": false,
      "stateMutability": "view",
      "type": "function"
    },
    {
      "constant": true,
      "inputs": [],
      "name": "weiRaised",
      "outputs": [
        {
          "name": "",
          "type": "uint256"
        }
      ],
      "payable": false,
      "stateMutability": "view",
      "type": "function"
    },
    {
      "constant": true,
      "inputs": [],
      "name": "closingTime",
      "outputs": [
        {
          "name": "",
          "type": "uint256"
        }
      ],
      "payable": false,
      "stateMutability": "view",
      "type": "function"
    },
    {
      "constant": false,
      "inputs": [],
      "name": "finalize",
      "outputs": [],
      "payable": false,
      "stateMutability": "nonpayable",
      "type": "function"
    },
    {
      "constant": true,
      "inputs": [],
      "name": "capReached",
      "outputs": [
        {
          "name": "",
          "type": "bool"
        }
      ],
      "payable": false,
      "stateMutability": "view",
      "type": "function"
    },
    {
      "constant": true,
      "inputs": [],
      "name": "wallet",
      "outputs": [
        {
          "name": "",
          "type": "address"
        }
      ],
      "payable": false,
      "stateMutability": "view",
      "type": "function"
    },
    {
      "constant": false,
      "inputs": [],
      "name": "renounceOwnership",
      "outputs": [],
      "payable": false,
      "stateMutability": "nonpayable",
      "type": "function"
    },
    {
      "constant": true,
      "inputs": [],
      "name": "stagesLength",
      "outputs": [
        {
          "name": "",
          "type": "uint256"
        }
      ],
      "payable": false,
      "stateMutability": "view",
      "type": "function"
    },
    {
      "constant": false,
      "inputs": [
        {
          "name": "_operator",
          "type": "address"
        }
      ],
      "name": "addAddressToWhitelist",
      "outputs": [],
      "payable": false,
      "stateMutability": "nonpayable",
      "type": "function"
    },
    {
      "constant": true,
      "inputs": [],
      "name": "goalReached",
      "outputs": [
        {
          "name": "",
          "type": "bool"
        }
      ],
      "payable": false,
      "stateMutability": "view",
      "type": "function"
    },
    {
      "constant": true,
      "inputs": [
        {
          "name": "",
          "type": "uint256"
        }
      ],
      "name": "stages",
      "outputs": [
        {
          "name": "stage",
          "type": "uint8"
        },
        {
          "name": "startTime",
          "type": "uint256"
        },
        {
          "name": "endTime",
          "type": "uint256"
        },
        {
          "name": "rate",
          "type": "uint256"
        },
        {
          "name": "exist",
          "type": "bool"
        }
      ],
      "payable": false,
      "stateMutability": "view",
      "type": "function"
    },
    {
      "constant": true,
      "inputs": [],
      "name": "tokensForPrivateSale",
      "outputs": [
        {
          "name": "",
          "type": "uint256"
        }
      ],
      "payable": false,
      "stateMutability": "view",
      "type": "function"
    },
    {
      "constant": true,
      "inputs": [],
      "name": "isFinalized",
      "outputs": [
        {
          "name": "",
          "type": "bool"
        }
      ],
      "payable": false,
      "stateMutability": "view",
      "type": "function"
    },
    {
      "constant": true,
      "inputs": [],
      "name": "owner",
      "outputs": [
        {
          "name": "",
          "type": "address"
        }
      ],
      "payable": false,
      "stateMutability": "view",
      "type": "function"
    },
    {
      "constant": true,
      "inputs": [
        {
          "name": "_operator",
          "type": "address"
        }
      ],
      "name": "whitelist",
      "outputs": [
        {
          "name": "",
          "type": "bool"
        }
      ],
      "payable": false,
      "stateMutability": "view",
      "type": "function"
    },
    {
      "constant": false,
      "inputs": [],
      "name": "claimRefund",
      "outputs": [],
      "payable": false,
      "stateMutability": "nonpayable",
      "type": "function"
    },
    {
      "constant": true,
      "inputs": [],
      "name": "openingTime",
      "outputs": [
        {
          "name": "",
          "type": "uint256"
        }
      ],
      "payable": false,
      "stateMutability": "view",
      "type": "function"
    },
    {
      "constant": false,
      "inputs": [
        {
          "name": "_operators",
          "type": "address[]"
        }
      ],
      "name": "addAddressesToWhitelist",
      "outputs": [],
      "payable": false,
      "stateMutability": "nonpayable",
      "type": "function"
    },
    {
      "constant": true,
      "inputs": [],
      "name": "maxTokens",
      "outputs": [
        {
          "name": "",
          "type": "uint256"
        }
      ],
      "payable": false,
      "stateMutability": "view",
      "type": "function"
    },
    {
      "constant": false,
      "inputs": [
        {
          "name": "_beneficiary",
          "type": "address"
        }
      ],
      "name": "buyTokens",
      "outputs": [],
      "payable": true,
      "stateMutability": "payable",
      "type": "function"
    },
    {
      "constant": false,
      "inputs": [
        {
          "name": "_newOwner",
          "type": "address"
        }
      ],
      "name": "transferOwnership",
      "outputs": [],
      "payable": false,
      "stateMutability": "nonpayable",
      "type": "function"
    },
    {
      "constant": true,
      "inputs": [],
      "name": "token",
      "outputs": [
        {
          "name": "",
          "type": "address"
        }
      ],
      "payable": false,
      "stateMutability": "view",
      "type": "function"
    },
    {
      "constant": true,
      "inputs": [],
      "name": "tokensForTeam",
      "outputs": [
        {
          "name": "",
          "type": "uint256"
        }
      ],
      "payable": false,
      "stateMutability": "view",
      "type": "function"
    },
    {
      "inputs": [
        {
          "name": "_startTime",
          "type": "uint256"
        },
        {
          "name": "_endTime",
          "type": "uint256"
        },
        {
          "name": "_rate",
          "type": "uint256"
        },
        {
          "name": "_wallet",
          "type": "address"
        },
        {
          "name": "_cap",
          "type": "uint256"
        },
        {
          "name": "_goal",
          "type": "uint256"
        },
        {
          "name": "_token",
          "type": "address"
        }
      ],
      "payable": false,
      "stateMutability": "nonpayable",
      "type": "constructor"
    },
    {
      "payable": true,
      "stateMutability": "payable",
      "type": "fallback"
    },
    {
      "anonymous": false,
      "inputs": [],
      "name": "Finalized",
      "type": "event"
    },
    {
      "anonymous": false,
      "inputs": [
        {
          "indexed": true,
          "name": "purchaser",
          "type": "address"
        },
        {
          "indexed": true,
          "name": "beneficiary",
          "type": "address"
        },
        {
          "indexed": false,
          "name": "value",
          "type": "uint256"
        },
        {
          "indexed": false,
          "name": "amount",
          "type": "uint256"
        }
      ],
      "name": "TokenPurchase",
      "type": "event"
    },
    {
      "anonymous": false,
      "inputs": [
        {
          "indexed": true,
          "name": "operator",
          "type": "address"
        },
        {
          "indexed": false,
          "name": "role",
          "type": "string"
        }
      ],
      "name": "RoleAdded",
      "type": "event"
    },
    {
      "anonymous": false,
      "inputs": [
        {
          "indexed": true,
          "name": "operator",
          "type": "address"
        },
        {
          "indexed": false,
          "name": "role",
          "type": "string"
        }
      ],
      "name": "RoleRemoved",
      "type": "event"
    },
    {
      "anonymous": false,
      "inputs": [
        {
          "indexed": true,
          "name": "previousOwner",
          "type": "address"
        }
      ],
      "name": "OwnershipRenounced",
      "type": "event"
    },
    {
      "anonymous": false,
      "inputs": [
        {
          "indexed": true,
          "name": "previousOwner",
          "type": "address"
        },
        {
          "indexed": true,
          "name": "newOwner",
          "type": "address"
        }
      ],
      "name": "OwnershipTransferred",
      "type": "event"
    },
    {
      "constant": false,
      "inputs": [
        {
          "name": "_rate",
          "type": "uint256"
        }
      ],
      "name": "setRate",
      "outputs": [],
      "payable": false,
      "stateMutability": "nonpayable",
      "type": "function"
    },
    {
      "constant": false,
      "inputs": [
        {
          "name": "_stageNumber",
          "type": "uint256"
        },
        {
          "name": "_startTime",
          "type": "uint256"
        },
        {
          "name": "_endTime",
          "type": "uint256"
        }
      ],
      "name": "setStage",
      "outputs": [],
      "payable": false,
      "stateMutability": "nonpayable",
      "type": "function"
    },
    {
      "constant": true,
      "inputs": [
        {
          "name": "_currentTime",
          "type": "uint256"
        }
      ],
      "name": "getCurrentStage",
      "outputs": [
        {
          "name": "",
          "type": "uint256"
        },
        {
          "name": "",
          "type": "uint256"
        },
        {
          "name": "",
          "type": "uint256"
        },
        {
          "name": "",
          "type": "uint256"
        }
      ],
      "payable": false,
      "stateMutability": "view",
      "type": "function"
    },
    {
      "constant": false,
      "inputs": [
        {
          "name": "_teamFund",
          "type": "address"
        },
        {
          "name": "_privateSaleFund",
          "type": "address"
        }
      ],
      "name": "finish",
      "outputs": [],
      "payable": false,
      "stateMutability": "nonpayable",
      "type": "function"
    }
  ],
  "bytecode": "0x60806040526000600960006101000a81548160ff0219169083151502179055506b06765c793fa10079d0000000600e556b033b2e3c9fd0803ce8000000600f556a295be96e640669720000006010553480156200005b57600080fd5b5060405160e080620044438339810180604052810190808051906020019092919080519060200190929190805190602001909291908051906020019092919080519060200190929190805190602001909291908051906020019092919050505081878785888886336000806101000a81548173ffffffffffffffffffffffffffffffffffffffff021916908373ffffffffffffffffffffffffffffffffffffffff1602179055506000831115156200011257600080fd5b600073ffffffffffffffffffffffffffffffffffffffff168273ffffffffffffffffffffffffffffffffffffffff16141515156200014f57600080fd5b600073ffffffffffffffffffffffffffffffffffffffff168173ffffffffffffffffffffffffffffffffffffffff16141515156200018c57600080fd5b8260048190555081600360006101000a81548173ffffffffffffffffffffffffffffffffffffffff021916908373ffffffffffffffffffffffffffffffffffffffff16021790555080600260006101000a81548173ffffffffffffffffffffffffffffffffffffffff021916908373ffffffffffffffffffffffffffffffffffffffff1602179055505050506000811115156200022857600080fd5b80600681905550504282101515156200024057600080fd5b8181101515156200025057600080fd5b816007819055508060088190555050506000811115156200027057600080fd5b600360009054906101000a900473ffffffffffffffffffffffffffffffffffffffff166200029d62000346565b808273ffffffffffffffffffffffffffffffffffffffff1673ffffffffffffffffffffffffffffffffffffffff168152602001915050604051809103906000f080158015620002f0573d6000803e3d6000fd5b50600b60006101000a81548173ffffffffffffffffffffffffffffffffffffffff021916908373ffffffffffffffffffffffffffffffffffffffff16021790555080600a81905550505050505050505062000357565b604051610dd5806200366e83390190565b61330780620003676000396000f3006080604052600436106101b7576000357c0100000000000000000000000000000000000000000000000000000000900463ffffffff1680630988ca8c146101c25780631515bc2b1461024b57806318b919e91461027a5780631c652ec81461030a578063217fe6c61461034b5780632458d472146103ec57806324953eaa14610442578063286dd3f5146104a85780632c4e722e146104eb57806334fcf43714610516578063355274ea14610543578063401938831461056e5780634042b66f146105995780634b6753bc146105c45780634bb278f3146105ef5780634f93594514610606578063521eb27314610635578063715018a61461068c578063792c02ea146106a35780637b9417c8146106ce5780637d3d652214610711578063845ddcb21461074057806385daf8ea146107af5780638d4e4083146107da5780638da5cb5b146108095780639b19251a14610860578063b5545a3c146108bb578063b7a8807c146108d2578063dd9bc47e146108fd578063e2ec6ec314610960578063e8315742146109c6578063ec8ac4d8146109f1578063f2fde38b14610a27578063fc0c546a14610a6a578063fde83a3414610ac1575b6101c033610aec565b005b3480156101ce57600080fd5b50610249600480360381019080803573ffffffffffffffffffffffffffffffffffffffff169060200190929190803590602001908201803590602001908080601f0160208091040260200160405190810160405280939291908181526020018383808284378201915050505050509192919290505050610bba565b005b34801561025757600080fd5b50610260610c3b565b604051808215151515815260200191505060405180910390f35b34801561028657600080fd5b5061028f610c47565b6040518080602001828103825283818151815260200191508051906020019080838360005b838110156102cf5780820151818401526020810190506102b4565b50505050905090810190601f1680156102fc5780820380516001836020036101000a031916815260200191505b509250505060405180910390f35b34801561031657600080fd5b50610349600480360381019080803590602001909291908035906020019092919080359060200190929190505050610c80565b005b34801561035757600080fd5b506103d2600480360381019080803573ffffffffffffffffffffffffffffffffffffffff169060200190929190803590602001908201803590602001908080601f016020809104026020016040519081016040528093929190818152602001838380828437820191505050505050919291929050505061158c565b604051808215151515815260200191505060405180910390f35b3480156103f857600080fd5b5061041760048036038101908080359060200190929190505050611613565b6040518085815260200184815260200183815260200182815260200194505050505060405180910390f35b34801561044e57600080fd5b506104a660048036038101908080359060200190820180359060200190808060200260200160405190810160405280939291908181526020018383602002808284378201915050505050509192919290505050611686565b005b3480156104b457600080fd5b506104e9600480360381019080803573ffffffffffffffffffffffffffffffffffffffff169060200190929190505050611722565b005b3480156104f757600080fd5b506105006117bf565b6040518082815260200191505060405180910390f35b34801561052257600080fd5b50610541600480360381019080803590602001909291905050506117c5565b005b34801561054f57600080fd5b50610558611afd565b6040518082815260200191505060405180910390f35b34801561057a57600080fd5b50610583611b03565b6040518082815260200191505060405180910390f35b3480156105a557600080fd5b506105ae611b09565b6040518082815260200191505060405180910390f35b3480156105d057600080fd5b506105d9611b0f565b6040518082815260200191505060405180910390f35b3480156105fb57600080fd5b50610604611b15565b005b34801561061257600080fd5b5061061b611bf0565b604051808215151515815260200191505060405180910390f35b34801561064157600080fd5b5061064a611bff565b604051808273ffffffffffffffffffffffffffffffffffffffff1673ffffffffffffffffffffffffffffffffffffffff16815260200191505060405180910390f35b34801561069857600080fd5b506106a1611c25565b005b3480156106af57600080fd5b506106b8611d27565b6040518082815260200191505060405180910390f35b3480156106da57600080fd5b5061070f600480360381019080803573ffffffffffffffffffffffffffffffffffffffff169060200190929190505050611d2d565b005b34801561071d57600080fd5b50610726611dca565b604051808215151515815260200191505060405180910390f35b34801561074c57600080fd5b5061076b60048036038101908080359060200190929190505050611dd9565b6040518086600481111561077b57fe5b60ff168152602001858152602001848152602001838152602001821515151581526020019550505050505060405180910390f35b3480156107bb57600080fd5b506107c4611e29565b6040518082815260200191505060405180910390f35b3480156107e657600080fd5b506107ef611e2f565b604051808215151515815260200191505060405180910390f35b34801561081557600080fd5b5061081e611e42565b604051808273ffffffffffffffffffffffffffffffffffffffff1673ffffffffffffffffffffffffffffffffffffffff16815260200191505060405180910390f35b34801561086c57600080fd5b506108a1600480360381019080803573ffffffffffffffffffffffffffffffffffffffff169060200190929190505050611e67565b604051808215151515815260200191505060405180910390f35b3480156108c757600080fd5b506108d0611eaf565b005b3480156108de57600080fd5b506108e7611fb5565b6040518082815260200191505060405180910390f35b34801561090957600080fd5b5061095e600480360381019080803573ffffffffffffffffffffffffffffffffffffffff169060200190929190803573ffffffffffffffffffffffffffffffffffffffff169060200190929190505050611fbb565b005b34801561096c57600080fd5b506109c46004803603810190808035906020019082018035906020019080806020026020016040519081016040528093929190818152602001838360200280828437820191505050505050919291929050505061215a565b005b3480156109d257600080fd5b506109db6121f6565b6040518082815260200191505060405180910390f35b610a25600480360381019080803573ffffffffffffffffffffffffffffffffffffffff169060200190929190505050610aec565b005b348015610a3357600080fd5b50610a68600480360381019080803573ffffffffffffffffffffffffffffffffffffffff1690602001909291905050506121fc565b005b348015610a7657600080fd5b50610a7f612263565b604051808273ffffffffffffffffffffffffffffffffffffffff1673ffffffffffffffffffffffffffffffffffffffff16815260200191505060405180910390f35b348015610acd57600080fd5b50610ad6612289565b6040518082815260200191505060405180910390f35b600080349150610afc838361228f565b610b05826122de565b9050610b1c8260055461231290919063ffffffff16565b600581905550610b2c838261232e565b8273ffffffffffffffffffffffffffffffffffffffff163373ffffffffffffffffffffffffffffffffffffffff167f623b3804fa71d67900d064613da8f94b9617215ee90799290593e1745087ad188484604051808381526020018281526020019250505060405180910390a3610ba3838361233c565b610bab612340565b610bb58383612418565b505050565b610c37826001836040518082805190602001908083835b602083101515610bf65780518252602082019150602081019050602083039250610bd1565b6001836020036101000a038019825116818451168082178552505050505050905001915050908152602001604051809103902061241c90919063ffffffff16565b5050565b60006008544211905090565b6040805190810160405280600981526020017f77686974656c697374000000000000000000000000000000000000000000000081525081565b6000809054906101000a900473ffffffffffffffffffffffffffffffffffffffff1673ffffffffffffffffffffffffffffffffffffffff163373ffffffffffffffffffffffffffffffffffffffff16141515610cdb57600080fd5b6007548210151515610d7b576040517f08c379a000000000000000000000000000000000000000000000000000000000815260040180806020018281038252602d8152602001807f53746172742074696d65206973206c6f776572207468616e207468652049434f81526020017f206f70656e696e672074696d650000000000000000000000000000000000000081525060400191505060405180910390fd5b818110151515610e19576040517f08c379a00000000000000000000000000000000000000000000000000000000081526004018080602001828103825260218152602001807f456e642074696d65206973206c6f776572207468616e2073746172742074696d81526020017f650000000000000000000000000000000000000000000000000000000000000081525060400191505060405180910390fd5b6008548111151515610eb9576040517f08c379a000000000000000000000000000000000000000000000000000000000815260040180806020018281038252602b8152602001807f456e642074696d65206973207570706572207468616e207468652049434f206381526020017f6c6f73696e672074696d6500000000000000000000000000000000000000000081525060400191505060405180910390fd5b60006004811115610ec657fe5b83148015610f06575060001515600c6000806004811115610ee357fe5b815260200190815260200160002060040160009054906101000a900460ff161515145b1561101d5760a06040519081016040528060006004811115610f2457fe5b8152602001838152602001828152602001610f72610f616064610f53601460045461243590919063ffffffff16565b61246d90919063ffffffff16565b60045461231290919063ffffffff16565b815260200160011515815250600c6000806004811115610f8e57fe5b815260200190815260200160002060008201518160000160006101000a81548160ff02191690836004811115610fc057fe5b021790555060208201518160010155604082015181600201556060820151816003015560808201518160040160006101000a81548160ff021916908315150217905550905050600d60008154809291906001019190505550611587565b6001600481111561102a57fe5b8314801561106b575060001515600c60006001600481111561104857fe5b815260200190815260200160002060040160009054906101000a900460ff161515145b156111835760a0604051908101604052806001600481111561108957fe5b81526020018381526020018281526020016110d76110c660646110b8600a60045461243590919063ffffffff16565b61246d90919063ffffffff16565b60045461231290919063ffffffff16565b815260200160011515815250600c6000600160048111156110f457fe5b815260200190815260200160002060008201518160000160006101000a81548160ff0219169083600481111561112657fe5b021790555060208201518160010155604082015181600201556060820151816003015560808201518160040160006101000a81548160ff021916908315150217905550905050600d60008154809291906001019190505550611586565b6002600481111561119057fe5b831480156111d1575060001515600c6000600260048111156111ae57fe5b815260200190815260200160002060040160009054906101000a900460ff161515145b156112e95760a060405190810160405280600260048111156111ef57fe5b815260200183815260200182815260200161123d61122c606461121e600560045461243590919063ffffffff16565b61246d90919063ffffffff16565b60045461231290919063ffffffff16565b815260200160011515815250600c60006002600481111561125a57fe5b815260200190815260200160002060008201518160000160006101000a81548160ff0219169083600481111561128c57fe5b021790555060208201518160010155604082015181600201556060820151816003015560808201518160040160006101000a81548160ff021916908315150217905550905050600d60008154809291906001019190505550611585565b600360048111156112f657fe5b83148015611337575060001515600c60006003600481111561131457fe5b815260200190815260200160002060040160009054906101000a900460ff161515145b1561144f5760a0604051908101604052806003600481111561135557fe5b81526020018381526020018281526020016113a36113926064611384600260045461243590919063ffffffff16565b61246d90919063ffffffff16565b60045461231290919063ffffffff16565b815260200160011515815250600c6000600360048111156113c057fe5b815260200190815260200160002060008201518160000160006101000a81548160ff021916908360048111156113f257fe5b021790555060208201518160010155604082015181600201556060820151816003015560808201518160040160006101000a81548160ff021916908315150217905550905050600d60008154809291906001019190505550611584565b60048081111561145b57fe5b8314801561149b575060001515600c600060048081111561147857fe5b815260200190815260200160002060040160009054906101000a900460ff161515145b1561158357600854811415156114b057600080fd5b60a0604051908101604052806004808111156114c857fe5b8152602001838152602001828152602001600454815260200160011515815250600c60006004808111156114f857fe5b815260200190815260200160002060008201518160000160006101000a81548160ff0219169083600481111561152a57fe5b021790555060208201518160010155604082015181600201556060820151816003015560808201518160040160006101000a81548160ff021916908315150217905550905050600d600081548092919060010191905055505b5b5b5b5b505050565b600061160b836001846040518082805190602001908083835b6020831015156115ca57805182526020820191506020810190506020830392506115a5565b6001836020036101000a038019825116818451168082178552505050505050905001915050908152602001604051809103902061248390919063ffffffff16565b905092915050565b60008060008061162161329e565b61162a866124dc565b9050806080015115611662578060000151600481111561164657fe5b816020015182604001518360600151945094509450945061167e565b6064600080600083935082925081915080905094509450945094505b509193509193565b60008060009054906101000a900473ffffffffffffffffffffffffffffffffffffffff1673ffffffffffffffffffffffffffffffffffffffff163373ffffffffffffffffffffffffffffffffffffffff161415156116e357600080fd5b600090505b815181101561171e57611711828281518110151561170257fe5b90602001906020020151611722565b80806001019150506116e8565b5050565b6000809054906101000a900473ffffffffffffffffffffffffffffffffffffffff1673ffffffffffffffffffffffffffffffffffffffff163373ffffffffffffffffffffffffffffffffffffffff1614151561177d57600080fd5b6117bc816040805190810160405280600981526020017f77686974656c6973740000000000000000000000000000000000000000000000815250612aaf565b50565b60045481565b6000809054906101000a900473ffffffffffffffffffffffffffffffffffffffff1673ffffffffffffffffffffffffffffffffffffffff163373ffffffffffffffffffffffffffffffffffffffff1614151561182057600080fd5b80600481905550600c600080600481111561183757fe5b815260200190815260200160002060040160009054906101000a900460ff16156118c2576118986118876064611879601460045461243590919063ffffffff16565b61246d90919063ffffffff16565b60045461231290919063ffffffff16565b600c60008060048111156118a857fe5b815260200190815260200160002060030181905550611afa565b600c6000600160048111156118d357fe5b815260200190815260200160002060040160009054906101000a900460ff161561195f576119346119236064611915600a60045461243590919063ffffffff16565b61246d90919063ffffffff16565b60045461231290919063ffffffff16565b600c60006001600481111561194557fe5b815260200190815260200160002060030181905550611af9565b600c60006002600481111561197057fe5b815260200190815260200160002060040160009054906101000a900460ff16156119fc576119d16119c060646119b2600560045461243590919063ffffffff16565b61246d90919063ffffffff16565b60045461231290919063ffffffff16565b600c6000600260048111156119e257fe5b815260200190815260200160002060030181905550611af8565b600c600060036004811115611a0d57fe5b815260200190815260200160002060040160009054906101000a900460ff1615611a9957611a6e611a5d6064611a4f600260045461243590919063ffffffff16565b61246d90919063ffffffff16565b60045461231290919063ffffffff16565b600c600060036004811115611a7f57fe5b815260200190815260200160002060030181905550611af7565b600c6000600480811115611aa957fe5b815260200190815260200160002060040160009054906101000a900460ff1615611af657600454600c6000600480811115611ae057fe5b8152602001908152602001600020600301819055505b5b5b5b5b50565b60065481565b600a5481565b60055481565b60085481565b6000809054906101000a900473ffffffffffffffffffffffffffffffffffffffff1673ffffffffffffffffffffffffffffffffffffffff163373ffffffffffffffffffffffffffffffffffffffff16141515611b7057600080fd5b600960009054906101000a900460ff16151515611b8c57600080fd5b611b94610c3b565b1515611b9f57600080fd5b611ba7612be3565b7f6823b073d48d6e3a7d385eeb601452d680e74bb46afe3255a7d778f3a9b1768160405160405180910390a16001600960006101000a81548160ff021916908315150217905550565b60006006546005541015905090565b600360009054906101000a900473ffffffffffffffffffffffffffffffffffffffff1681565b6000809054906101000a900473ffffffffffffffffffffffffffffffffffffffff1673ffffffffffffffffffffffffffffffffffffffff163373ffffffffffffffffffffffffffffffffffffffff16141515611c8057600080fd5b6000809054906101000a900473ffffffffffffffffffffffffffffffffffffffff1673ffffffffffffffffffffffffffffffffffffffff167ff8df31144d9c2f0f6b59d69b8b98abd5459d07f2742c4df920b25aae33c6482060405160405180910390a260008060006101000a81548173ffffffffffffffffffffffffffffffffffffffff021916908373ffffffffffffffffffffffffffffffffffffffff160217905550565b600d5481565b6000809054906101000a900473ffffffffffffffffffffffffffffffffffffffff1673ffffffffffffffffffffffffffffffffffffffff163373ffffffffffffffffffffffffffffffffffffffff16141515611d8857600080fd5b611dc7816040805190810160405280600981526020017f77686974656c6973740000000000000000000000000000000000000000000000815250612dda565b50565b6000600a546005541015905090565b600c6020528060005260406000206000915090508060000160009054906101000a900460ff16908060010154908060020154908060030154908060040160009054906101000a900460ff16905085565b60105481565b600960009054906101000a900460ff1681565b6000809054906101000a900473ffffffffffffffffffffffffffffffffffffffff1681565b6000611ea8826040805190810160405280600981526020017f77686974656c697374000000000000000000000000000000000000000000000081525061158c565b9050919050565b600960009054906101000a900460ff161515611eca57600080fd5b611ed2611dca565b151515611ede57600080fd5b600b60009054906101000a900473ffffffffffffffffffffffffffffffffffffffff1673ffffffffffffffffffffffffffffffffffffffff166351cff8d9336040518263ffffffff167c0100000000000000000000000000000000000000000000000000000000028152600401808273ffffffffffffffffffffffffffffffffffffffff1673ffffffffffffffffffffffffffffffffffffffff168152602001915050600060405180830381600087803b158015611f9b57600080fd5b505af1158015611faf573d6000803e3d6000fd5b50505050565b60075481565b6000806000809054906101000a900473ffffffffffffffffffffffffffffffffffffffff1673ffffffffffffffffffffffffffffffffffffffff163373ffffffffffffffffffffffffffffffffffffffff1614151561201957600080fd5b600960009054906101000a900460ff1615151561203557600080fd5b600260009054906101000a900473ffffffffffffffffffffffffffffffffffffffff1673ffffffffffffffffffffffffffffffffffffffff166318160ddd6040518163ffffffff167c0100000000000000000000000000000000000000000000000000000000028152600401602060405180830381600087803b1580156120bb57600080fd5b505af11580156120cf573d6000803e3d6000fd5b505050506040513d60208110156120e557600080fd5b8101908080519060200190929190505050915061210d82600654612f0e90919063ffffffff16565b905060008111156121345761212d81600f5461231290919063ffffffff16565b600f819055505b61214084600f54612f27565b61214c83601054612f27565b612154611b15565b50505050565b60008060009054906101000a900473ffffffffffffffffffffffffffffffffffffffff1673ffffffffffffffffffffffffffffffffffffffff163373ffffffffffffffffffffffffffffffffffffffff161415156121b757600080fd5b600090505b81518110156121f2576121e582828151811015156121d657fe5b90602001906020020151611d2d565b80806001019150506121bc565b5050565b600e5481565b6000809054906101000a900473ffffffffffffffffffffffffffffffffffffffff1673ffffffffffffffffffffffffffffffffffffffff163373ffffffffffffffffffffffffffffffffffffffff1614151561225757600080fd5b61226081613036565b50565b600260009054906101000a900473ffffffffffffffffffffffffffffffffffffffff1681565b600f5481565b816122cf816040805190810160405280600981526020017f77686974656c6973740000000000000000000000000000000000000000000000815250610bba565b6122d98383613130565b505050565b60006122e861329e565b6122f1426124dc565b905061230a81606001518461243590919063ffffffff16565b915050919050565b6000818301905082811015151561232557fe5b80905092915050565b6123388282612f27565b5050565b5050565b600b60009054906101000a900473ffffffffffffffffffffffffffffffffffffffff1673ffffffffffffffffffffffffffffffffffffffff1663f340fa0134336040518363ffffffff167c0100000000000000000000000000000000000000000000000000000000028152600401808273ffffffffffffffffffffffffffffffffffffffff1673ffffffffffffffffffffffffffffffffffffffff1681526020019150506000604051808303818588803b1580156123fd57600080fd5b505af1158015612411573d6000803e3d6000fd5b5050505050565b5050565b6124268282612483565b151561243157600080fd5b5050565b6000808314156124485760009050612467565b818302905081838281151561245957fe5b0414151561246357fe5b8090505b92915050565b6000818381151561247a57fe5b04905092915050565b60008260000160008373ffffffffffffffffffffffffffffffffffffffff1673ffffffffffffffffffffffffffffffffffffffff16815260200190815260200160002060009054906101000a900460ff16905092915050565b6124e461329e565b600c60008060048111156124f457fe5b815260200190815260200160002060040160009054906101000a900460ff1680156125405750600c600080600481111561252a57fe5b8152602001908152602001600020600101548210155b801561256d5750600c600080600481111561255757fe5b8152602001908152602001600020600201548211155b1561260957600c600080600481111561258257fe5b815260200190815260200160002060a060405190810160405290816000820160009054906101000a900460ff1660048111156125ba57fe5b60048111156125c557fe5b81526020016001820154815260200160028201548152602001600382015481526020016004820160009054906101000a900460ff1615151515815250509050612aaa565b600c60006001600481111561261a57fe5b815260200190815260200160002060040160009054906101000a900460ff1680156126675750600c60006001600481111561265157fe5b8152602001908152602001600020600101548210155b80156126955750600c60006001600481111561267f57fe5b8152602001908152602001600020600201548211155b1561273257600c6000600160048111156126ab57fe5b815260200190815260200160002060a060405190810160405290816000820160009054906101000a900460ff1660048111156126e357fe5b60048111156126ee57fe5b81526020016001820154815260200160028201548152602001600382015481526020016004820160009054906101000a900460ff1615151515815250509050612aaa565b600c60006002600481111561274357fe5b815260200190815260200160002060040160009054906101000a900460ff1680156127905750600c60006002600481111561277a57fe5b8152602001908152602001600020600101548210155b80156127be5750600c6000600260048111156127a857fe5b8152602001908152602001600020600201548211155b1561285b57600c6000600260048111156127d457fe5b815260200190815260200160002060a060405190810160405290816000820160009054906101000a900460ff16600481111561280c57fe5b600481111561281757fe5b81526020016001820154815260200160028201548152602001600382015481526020016004820160009054906101000a900460ff1615151515815250509050612aaa565b600c60006003600481111561286c57fe5b815260200190815260200160002060040160009054906101000a900460ff1680156128b95750600c6000600360048111156128a357fe5b8152602001908152602001600020600101548210155b80156128e75750600c6000600360048111156128d157fe5b8152602001908152602001600020600201548211155b1561298457600c6000600360048111156128fd57fe5b815260200190815260200160002060a060405190810160405290816000820160009054906101000a900460ff16600481111561293557fe5b600481111561294057fe5b81526020016001820154815260200160028201548152602001600382015481526020016004820160009054906101000a900460ff1615151515815250509050612aaa565b600c600060048081111561299457fe5b815260200190815260200160002060040160009054906101000a900460ff1680156129e05750600c60006004808111156129ca57fe5b8152602001908152602001600020600101548210155b8015612a0d5750600c60006004808111156129f757fe5b8152602001908152602001600020600201548211155b15612aa957600c6000600480811115612a2257fe5b815260200190815260200160002060a060405190810160405290816000820160009054906101000a900460ff166004811115612a5a57fe5b6004811115612a6557fe5b81526020016001820154815260200160028201548152602001600382015481526020016004820160009054906101000a900460ff1615151515815250509050612aaa565b5b919050565b612b2c826001836040518082805190602001908083835b602083101515612aeb5780518252602082019150602081019050602083039250612ac6565b6001836020036101000a038019825116818451168082178552505050505050905001915050908152602001604051809103902061315d90919063ffffffff16565b8173ffffffffffffffffffffffffffffffffffffffff167fd211483f91fc6eff862467f8de606587a30c8fc9981056f051b897a418df803a826040518080602001828103825283818151815260200191508051906020019080838360005b83811015612ba5578082015181840152602081019050612b8a565b50505050905090810190601f168015612bd25780820380516001836020036101000a031916815260200191505b509250505060405180910390a25050565b612beb611dca565b15612d3157600b60009054906101000a900473ffffffffffffffffffffffffffffffffffffffff1673ffffffffffffffffffffffffffffffffffffffff166343d726d66040518163ffffffff167c0100000000000000000000000000000000000000000000000000000000028152600401600060405180830381600087803b158015612c7657600080fd5b505af1158015612c8a573d6000803e3d6000fd5b50505050600b60009054906101000a900473ffffffffffffffffffffffffffffffffffffffff1673ffffffffffffffffffffffffffffffffffffffff16639af6549a6040518163ffffffff167c0100000000000000000000000000000000000000000000000000000000028152600401600060405180830381600087803b158015612d1457600080fd5b505af1158015612d28573d6000803e3d6000fd5b50505050612dd0565b600b60009054906101000a900473ffffffffffffffffffffffffffffffffffffffff1673ffffffffffffffffffffffffffffffffffffffff16638c52dc416040518163ffffffff167c0100000000000000000000000000000000000000000000000000000000028152600401600060405180830381600087803b158015612db757600080fd5b505af1158015612dcb573d6000803e3d6000fd5b505050505b612dd86131bb565b565b612e57826001836040518082805190602001908083835b602083101515612e165780518252602082019150602081019050602083039250612df1565b6001836020036101000a03801982511681845116808217855250505050505090500191505090815260200160405180910390206131bd90919063ffffffff16565b8173ffffffffffffffffffffffffffffffffffffffff167fbfec83d64eaa953f2708271a023ab9ee82057f8f3578d548c1a4ba0b5b700489826040518080602001828103825283818151815260200191508051906020019080838360005b83811015612ed0578082015181840152602081019050612eb5565b50505050905090810190601f168015612efd5780820380516001836020036101000a031916815260200191505b509250505060405180910390a25050565b6000828211151515612f1c57fe5b818303905092915050565b600260009054906101000a900473ffffffffffffffffffffffffffffffffffffffff1673ffffffffffffffffffffffffffffffffffffffff166340c10f1983836040518363ffffffff167c0100000000000000000000000000000000000000000000000000000000028152600401808373ffffffffffffffffffffffffffffffffffffffff1673ffffffffffffffffffffffffffffffffffffffff16815260200182815260200192505050602060405180830381600087803b158015612fec57600080fd5b505af1158015613000573d6000803e3d6000fd5b505050506040513d602081101561301657600080fd5b8101908080519060200190929190505050151561303257600080fd5b5050565b600073ffffffffffffffffffffffffffffffffffffffff168173ffffffffffffffffffffffffffffffffffffffff161415151561307257600080fd5b8073ffffffffffffffffffffffffffffffffffffffff166000809054906101000a900473ffffffffffffffffffffffffffffffffffffffff1673ffffffffffffffffffffffffffffffffffffffff167f8be0079c531659141344cd1fd0a4f28419497f9722a3daafe3b4186f6b6457e060405160405180910390a3806000806101000a81548173ffffffffffffffffffffffffffffffffffffffff021916908373ffffffffffffffffffffffffffffffffffffffff16021790555050565b600754421015801561314457506008544211155b151561314f57600080fd5b613159828261321b565b5050565b60008260000160008373ffffffffffffffffffffffffffffffffffffffff1673ffffffffffffffffffffffffffffffffffffffff16815260200190815260200160002060006101000a81548160ff0219169083151502179055505050565b565b60018260000160008373ffffffffffffffffffffffffffffffffffffffff1673ffffffffffffffffffffffffffffffffffffffff16815260200190815260200160002060006101000a81548160ff0219169083151502179055505050565b613225828261324e565b60065461323d8260055461231290919063ffffffff16565b1115151561324a57600080fd5b5050565b600073ffffffffffffffffffffffffffffffffffffffff168273ffffffffffffffffffffffffffffffffffffffff161415151561328a57600080fd5b6000811415151561329a57600080fd5b5050565b60a060405190810160405280600060048111156132b757fe5b815260200160008152602001600081526020016000815260200160001515815250905600a165627a7a72305820dd13472440a683eb033a2d28749cb328dd9a0307d9f3c8a94bd12016096481650029608060405234801561001057600080fd5b50604051602080610dd583398101806040528101908080519060200190929190505050336000806101000a81548173ffffffffffffffffffffffffffffffffffffffff021916908373ffffffffffffffffffffffffffffffffffffffff160217905550600073ffffffffffffffffffffffffffffffffffffffff168173ffffffffffffffffffffffffffffffffffffffff16141515156100af57600080fd5b80600260016101000a81548173ffffffffffffffffffffffffffffffffffffffff021916908373ffffffffffffffffffffffffffffffffffffffff1602179055506000600260006101000a81548160ff0219169083600281111561010f57fe5b021790555050610cb1806101246000396000f3006080604052600436106100ba576000357c0100000000000000000000000000000000000000000000000000000000900463ffffffff16806338af3eed146100bf57806343d726d61461011657806351cff8d91461012d578063685ca19414610170578063715018a6146101cb5780638c52dc41146101e25780638da5cb5b146101f95780639af6549a14610250578063c19d93fb14610267578063e3a9db1a146102a0578063f2fde38b146102f7578063f340fa011461033a575b600080fd5b3480156100cb57600080fd5b506100d4610370565b604051808273ffffffffffffffffffffffffffffffffffffffff1673ffffffffffffffffffffffffffffffffffffffff16815260200191505060405180910390f35b34801561012257600080fd5b5061012b610396565b005b34801561013957600080fd5b5061016e600480360381019080803573ffffffffffffffffffffffffffffffffffffffff169060200190929190505050610476565b005b34801561017c57600080fd5b506101b1600480360381019080803573ffffffffffffffffffffffffffffffffffffffff169060200190929190505050610496565b604051808215151515815260200191505060405180910390f35b3480156101d757600080fd5b506101e06104c8565b005b3480156101ee57600080fd5b506101f76105ca565b005b34801561020557600080fd5b5061020e6106ab565b604051808273ffffffffffffffffffffffffffffffffffffffff1673ffffffffffffffffffffffffffffffffffffffff16815260200191505060405180910390f35b34801561025c57600080fd5b506102656106d0565b005b34801561027357600080fd5b5061027c610785565b6040518082600281111561028c57fe5b60ff16815260200191505060405180910390f35b3480156102ac57600080fd5b506102e1600480360381019080803573ffffffffffffffffffffffffffffffffffffffff169060200190929190505050610798565b6040518082815260200191505060405180910390f35b34801561030357600080fd5b50610338600480360381019080803573ffffffffffffffffffffffffffffffffffffffff1690602001909291905050506107e1565b005b61036e600480360381019080803573ffffffffffffffffffffffffffffffffffffffff169060200190929190505050610848565b005b600260019054906101000a900473ffffffffffffffffffffffffffffffffffffffff1681565b6000809054906101000a900473ffffffffffffffffffffffffffffffffffffffff1673ffffffffffffffffffffffffffffffffffffffff163373ffffffffffffffffffffffffffffffffffffffff161415156103f157600080fd5b600060028111156103fe57fe5b600260009054906101000a900460ff16600281111561041957fe5b14151561042557600080fd5b60028060006101000a81548160ff0219169083600281111561044357fe5b02179055507f1cdde67b72a90f19919ac732a437ac2f7a10fc128d28c2a6e525d89ce5cd9d3a60405160405180910390a1565b61047f81610496565b151561048a57600080fd5b61049381610888565b50565b6000600160028111156104a557fe5b600260009054906101000a900460ff1660028111156104c057fe5b149050919050565b6000809054906101000a900473ffffffffffffffffffffffffffffffffffffffff1673ffffffffffffffffffffffffffffffffffffffff163373ffffffffffffffffffffffffffffffffffffffff1614151561052357600080fd5b6000809054906101000a900473ffffffffffffffffffffffffffffffffffffffff1673ffffffffffffffffffffffffffffffffffffffff167ff8df31144d9c2f0f6b59d69b8b98abd5459d07f2742c4df920b25aae33c6482060405160405180910390a260008060006101000a81548173ffffffffffffffffffffffffffffffffffffffff021916908373ffffffffffffffffffffffffffffffffffffffff160217905550565b6000809054906101000a900473ffffffffffffffffffffffffffffffffffffffff1673ffffffffffffffffffffffffffffffffffffffff163373ffffffffffffffffffffffffffffffffffffffff1614151561062557600080fd5b6000600281111561063257fe5b600260009054906101000a900460ff16600281111561064d57fe5b14151561065957600080fd5b6001600260006101000a81548160ff0219169083600281111561067857fe5b02179055507f599d8e5a83cffb867d051598c4d70e805d59802d8081c1c7d6dffc5b6aca2b8960405160405180910390a1565b6000809054906101000a900473ffffffffffffffffffffffffffffffffffffffff1681565b6002808111156106dc57fe5b600260009054906101000a900460ff1660028111156106f757fe5b14151561070357600080fd5b600260019054906101000a900473ffffffffffffffffffffffffffffffffffffffff1673ffffffffffffffffffffffffffffffffffffffff166108fc3073ffffffffffffffffffffffffffffffffffffffff16319081150290604051600060405180830381858888f19350505050158015610782573d6000803e3d6000fd5b50565b600260009054906101000a900460ff1681565b6000600160008373ffffffffffffffffffffffffffffffffffffffff1673ffffffffffffffffffffffffffffffffffffffff168152602001908152602001600020549050919050565b6000809054906101000a900473ffffffffffffffffffffffffffffffffffffffff1673ffffffffffffffffffffffffffffffffffffffff163373ffffffffffffffffffffffffffffffffffffffff1614151561083c57600080fd5b61084581610a28565b50565b6000600281111561085557fe5b600260009054906101000a900460ff16600281111561087057fe5b14151561087c57600080fd5b61088581610b22565b50565b60008060009054906101000a900473ffffffffffffffffffffffffffffffffffffffff1673ffffffffffffffffffffffffffffffffffffffff163373ffffffffffffffffffffffffffffffffffffffff161415156108e557600080fd5b600160008373ffffffffffffffffffffffffffffffffffffffff1673ffffffffffffffffffffffffffffffffffffffff168152602001908152602001600020549050803073ffffffffffffffffffffffffffffffffffffffff16311015151561094a57fe5b6000600160008473ffffffffffffffffffffffffffffffffffffffff1673ffffffffffffffffffffffffffffffffffffffff168152602001908152602001600020819055508173ffffffffffffffffffffffffffffffffffffffff166108fc829081150290604051600060405180830381858888f193505050501580156109d5573d6000803e3d6000fd5b508173ffffffffffffffffffffffffffffffffffffffff167f7084f5476618d8e60b11ef0d7d3f06914655adb8793e28ff7f018d4c76d505d5826040518082815260200191505060405180910390a25050565b600073ffffffffffffffffffffffffffffffffffffffff168173ffffffffffffffffffffffffffffffffffffffff1614151515610a6457600080fd5b8073ffffffffffffffffffffffffffffffffffffffff166000809054906101000a900473ffffffffffffffffffffffffffffffffffffffff1673ffffffffffffffffffffffffffffffffffffffff167f8be0079c531659141344cd1fd0a4f28419497f9722a3daafe3b4186f6b6457e060405160405180910390a3806000806101000a81548173ffffffffffffffffffffffffffffffffffffffff021916908373ffffffffffffffffffffffffffffffffffffffff16021790555050565b60008060009054906101000a900473ffffffffffffffffffffffffffffffffffffffff1673ffffffffffffffffffffffffffffffffffffffff163373ffffffffffffffffffffffffffffffffffffffff16141515610b7f57600080fd5b349050610bd481600160008573ffffffffffffffffffffffffffffffffffffffff1673ffffffffffffffffffffffffffffffffffffffff16815260200190815260200160002054610c6990919063ffffffff16565b600160008473ffffffffffffffffffffffffffffffffffffffff1673ffffffffffffffffffffffffffffffffffffffff168152602001908152602001600020819055508173ffffffffffffffffffffffffffffffffffffffff167f2da466a7b24304f47e87fa2e1e5a81b9831ce54fec19055ce277ca2f39ba42c4826040518082815260200191505060405180910390a25050565b60008183019050828110151515610c7c57fe5b809050929150505600a165627a7a72305820cabc2021423b53ab195ce7f00637bd1a9d69c50156fbdc90d167504d1c97b3b30029",
  "source": "pragma solidity ^0.4.23;\r\n\r\nimport \"./CarborCoin.sol\";\r\nimport \"zeppelin-solidity/contracts/crowdsale/validation/CappedCrowdsale.sol\";\r\nimport \"zeppelin-solidity/contracts/crowdsale/distribution/RefundableCrowdsale.sol\";\r\nimport \"zeppelin-solidity/contracts/crowdsale/emission/MintedCrowdsale.sol\";\r\nimport \"zeppelin-solidity/contracts/crowdsale/validation/WhitelistedCrowdsale.sol\";\r\n\r\ncontract CarborCrowdsale is CappedCrowdsale, RefundableCrowdsale, MintedCrowdsale, WhitelistedCrowdsale {\r\n\r\n    // ICO Stages\r\n    // ==========\r\n    enum Stage { PreSaleBonus20Percent, PreSaleBonus10Percent, PreSaleBonus5Percent, PreSaleBonus2Percent, MainSale }\r\n    struct StageDetail {\r\n        Stage stage;\r\n        uint startTime;\r\n        uint endTime;\r\n        uint rate;\r\n        bool exist;\r\n    }\r\n    mapping(uint => StageDetail) public stages;\r\n    uint public stagesLength;\r\n\r\n    // Token distribution\r\n    // ===================\r\n    uint256 public maxTokens = 2000000000000000000000000000; // 200 000 000 tokens\r\n    uint256 public tokensForTeam = 1000000000000000000000000000; // 100 000 000 tokens will be minted and shared between funders, developers, partners, bounties\r\n    uint256 public tokensForPrivateSale = 50000000000000000000000000; // 5 000 000 tokens will be minted for private sale and early investors\r\n\r\n    // Constructor\r\n    // ===========\r\n    function CarborCrowdsale(uint256 _startTime, uint256 _endTime, uint _rate, address _wallet, uint256 _cap, uint _goal, CarborCoin _token) public\r\n        Crowdsale(_rate, _wallet, _token)\r\n        TimedCrowdsale(_startTime, _endTime)\r\n        RefundableCrowdsale(_goal)\r\n        CappedCrowdsale(_cap) \r\n    {\r\n    }\r\n\r\n    //Stage management\r\n    // ===============\r\n\r\n    // Enable to change the rate\r\n    function setRate(uint _rate) public onlyOwner {\r\n        rate = _rate;\r\n        if (stages[uint(Stage.PreSaleBonus20Percent)].exist) {\r\n            stages[uint(Stage.PreSaleBonus20Percent)].rate = rate.add(rate.mul(20).div(100));\r\n        }\r\n        else if (stages[uint(Stage.PreSaleBonus10Percent)].exist) {\r\n            stages[uint(Stage.PreSaleBonus10Percent)].rate = rate.add(rate.mul(10).div(100));\r\n        }\r\n        else if (stages[uint(Stage.PreSaleBonus5Percent)].exist) {\r\n            stages[uint(Stage.PreSaleBonus5Percent)].rate = rate.add(rate.mul(5).div(100));\r\n        }\r\n        else if (stages[uint(Stage.PreSaleBonus2Percent)].exist) {\r\n            stages[uint(Stage.PreSaleBonus2Percent)].rate = rate.add(rate.mul(2).div(100));\r\n        }\r\n        else if (stages[uint(Stage.MainSale)].exist) {\r\n            stages[uint(Stage.MainSale)].rate = rate;\r\n        }\r\n    }\r\n\r\n    //Define sale stage with its time boundaries\r\n    function setStage (uint _stageNumber, uint _startTime, uint _endTime) public onlyOwner {\r\n        // require(_startTime >= block.timestamp);\r\n        require(_startTime >= openingTime, \"Start time is lower than the ICO opening time\");\r\n        require(_endTime >= _startTime, \"End time is lower than start time\");\r\n        require(_endTime <= closingTime, \"End time is upper than the ICO closing time\");\r\n\r\n        if (_stageNumber == uint(Stage.PreSaleBonus20Percent) && stages[uint(Stage.PreSaleBonus20Percent)].exist == false) {\r\n            stages[uint(Stage.PreSaleBonus20Percent)] = StageDetail(Stage.PreSaleBonus20Percent, _startTime, _endTime, rate.add(rate.mul(20).div(100)), true);\r\n            stagesLength++;\r\n        }\r\n        else if (_stageNumber == uint(Stage.PreSaleBonus10Percent) && stages[uint(Stage.PreSaleBonus10Percent)].exist == false) {\r\n            stages[uint(Stage.PreSaleBonus10Percent)] = StageDetail(Stage.PreSaleBonus10Percent, _startTime, _endTime, rate.add(rate.mul(10).div(100)), true);\r\n            stagesLength++;\r\n        }\r\n        else if (_stageNumber == uint(Stage.PreSaleBonus5Percent) && stages[uint(Stage.PreSaleBonus5Percent)].exist == false) {\r\n            stages[uint(Stage.PreSaleBonus5Percent)] = StageDetail(Stage.PreSaleBonus5Percent, _startTime, _endTime, rate.add(rate.mul(5).div(100)), true);\r\n            stagesLength++;\r\n        }\r\n        else if (_stageNumber == uint(Stage.PreSaleBonus2Percent) && stages[uint(Stage.PreSaleBonus2Percent)].exist == false) {\r\n            stages[uint(Stage.PreSaleBonus2Percent)] = StageDetail(Stage.PreSaleBonus2Percent, _startTime, _endTime, rate.add(rate.mul(2).div(100)), true);\r\n            stagesLength++;\r\n        }\r\n        else if (_stageNumber == uint(Stage.MainSale) && stages[uint(Stage.MainSale)].exist == false) {\r\n            require(_endTime == closingTime);\r\n            stages[uint(Stage.MainSale)] = StageDetail(Stage.MainSale, _startTime, _endTime, rate, true);\r\n            stagesLength++;\r\n        }\r\n    }\r\n\r\n    //Get the current stage for the current date\r\n    function _findCurrentStage(uint _currentTime) internal view returns (StageDetail) {\r\n        if (stages[uint(Stage.PreSaleBonus20Percent)].exist && _currentTime >= stages[uint(Stage.PreSaleBonus20Percent)].startTime && _currentTime <= stages[uint(Stage.PreSaleBonus20Percent)].endTime) {\r\n            return stages[uint(Stage.PreSaleBonus20Percent)];\r\n        }\r\n        else if (stages[uint(Stage.PreSaleBonus10Percent)].exist && _currentTime >= stages[uint(Stage.PreSaleBonus10Percent)].startTime && _currentTime <= stages[uint(Stage.PreSaleBonus10Percent)].endTime) {\r\n            return stages[uint(Stage.PreSaleBonus10Percent)];\r\n        }\r\n        else if (stages[uint(Stage.PreSaleBonus5Percent)].exist && _currentTime >= stages[uint(Stage.PreSaleBonus5Percent)].startTime && _currentTime <= stages[uint(Stage.PreSaleBonus5Percent)].endTime) {\r\n            return stages[uint(Stage.PreSaleBonus5Percent)];\r\n        }\r\n        else if (stages[uint(Stage.PreSaleBonus2Percent)].exist && _currentTime >= stages[uint(Stage.PreSaleBonus2Percent)].startTime && _currentTime <= stages[uint(Stage.PreSaleBonus2Percent)].endTime) {\r\n            return stages[uint(Stage.PreSaleBonus2Percent)];\r\n        }\r\n        else if (stages[uint(Stage.MainSale)].exist && _currentTime >= stages[uint(Stage.MainSale)].startTime && _currentTime <= stages[uint(Stage.MainSale)].endTime) {\r\n            return stages[uint(Stage.MainSale)];\r\n        }\r\n    }\r\n\r\n    \r\n    // Get the current stage. Get the stage, the start time, the end time and the rate\r\n    function getCurrentStage (uint _currentTime) public view returns (uint, uint, uint, uint) {\r\n        StageDetail memory _stage = _findCurrentStage(_currentTime);\r\n        if (_stage.exist) {\r\n            return (uint(_stage.stage), _stage.startTime, _stage.endTime, _stage.rate);\r\n        }\r\n        else {\r\n            return (100, 0,0,0);\r\n        }\r\n    }   \r\n\r\n    // Token purchase\r\n    // ==============\r\n\r\n    // Override \r\n    // Get the token amount using the current rate\r\n    function _getTokenAmount(uint256 _weiAmount)\r\n        internal view returns (uint256)\r\n    {\r\n        StageDetail memory _stage = _findCurrentStage(now);\r\n        return _weiAmount.mul(_stage.rate);\r\n    }\r\n\r\n    //Receive payments\r\n    function () external payable {\r\n        buyTokens(msg.sender);\r\n    }\r\n\r\n    // Finish: Mint Extra Tokens as needed before finalizing the Crowdsale.\r\n    // ====================================================================\r\n    function finish(address _teamFund, address _privateSaleFund) public onlyOwner {\r\n        require(!isFinalized);\r\n        uint256 alreadyMinted = token.totalSupply();\r\n\r\n        uint unsoldTokens = cap.sub(alreadyMinted);\r\n        if (unsoldTokens > 0) {\r\n            tokensForTeam = tokensForTeam.add(unsoldTokens);\r\n        }\r\n\r\n        super._deliverTokens(_teamFund, tokensForTeam);\r\n        super._deliverTokens(_privateSaleFund, tokensForPrivateSale);\r\n        finalize();\r\n    }\r\n}",
  "sourcePath": "D:\\Apps\\carbor\\SmartContracts\\contracts\\CarborCrowdsale.sol",
  "compiler": {
    "name": "solc",
    "version": "0.4.24+commit.e67f0147.Emscripten.clang"
  },
  "schemaVersion": "2.0.0",
  "updatedAt": "2018-09-12T12:19:41.019Z"
}